{"contracts/NedaPayProtocol.sol":{"NedaPayProtocol":{"abi":[{"inputs":[],"stateMutability":"nonpayable","type":"constructor"},{"inputs":[],"name":"EnforcedPause","type":"error"},{"inputs":[],"name":"ExpectedPause","type":"error"},{"inputs":[{"internalType":"address","name":"owner","type":"address"}],"name":"OwnableInvalidOwner","type":"error"},{"inputs":[{"internalType":"address","name":"account","type":"address"}],"name":"OwnableUnauthorizedAccount","type":"error"},{"inputs":[],"name":"ReentrancyGuardReentrantCall","type":"error"},{"anonymous":false,"inputs":[{"indexed":true,"internalType":"address","name":"token","type":"address"},{"indexed":false,"internalType":"uint256","name":"amount","type":"uint256"}],"name":"FeesWithdrawn","type":"event"},{"anonymous":false,"inputs":[{"indexed":true,"internalType":"address","name":"previousOwner","type":"address"},{"indexed":true,"internalType":"address","name":"newOwner","type":"address"}],"name":"OwnershipTransferred","type":"event"},{"anonymous":false,"inputs":[{"indexed":false,"internalType":"address","name":"account","type":"address"}],"name":"Paused","type":"event"},{"anonymous":false,"inputs":[{"indexed":true,"internalType":"address","name":"user","type":"address"},{"indexed":true,"internalType":"address","name":"token","type":"address"},{"indexed":false,"internalType":"uint256","name":"amount","type":"uint256"},{"indexed":false,"internalType":"uint256","name":"fee","type":"uint256"},{"indexed":false,"internalType":"string","name":"paymentType","type":"string"}],"name":"PaymentProcessed","type":"event"},{"anonymous":false,"inputs":[{"indexed":true,"internalType":"address","name":"token","type":"address"}],"name":"TokenAdded","type":"event"},{"anonymous":false,"inputs":[{"indexed":true,"internalType":"address","name":"token","type":"address"}],"name":"TokenRemoved","type":"event"},{"anonymous":false,"inputs":[{"indexed":false,"internalType":"address","name":"account","type":"address"}],"name":"Unpaused","type":"event"},{"inputs":[],"name":"BASIS_POINTS","outputs":[{"internalType":"uint256","name":"","type":"uint256"}],"stateMutability":"view","type":"function"},{"inputs":[],"name":"FEE_RECIPIENT","outputs":[{"internalType":"address","name":"","type":"address"}],"stateMutability":"view","type":"function"},{"inputs":[{"internalType":"address","name":"token","type":"address"}],"name":"addSupportedToken","outputs":[],"stateMutability":"nonpayable","type":"function"},{"inputs":[{"internalType":"uint256","name":"usdAmount","type":"uint256"}],"name":"calculateDynamicFeeRate","outputs":[{"internalType":"uint256","name":"","type":"uint256"}],"stateMutability":"view","type":"function"},{"inputs":[{"internalType":"address","name":"token","type":"address"},{"internalType":"uint256","name":"amount","type":"uint256"}],"name":"calculateFee","outputs":[{"internalType":"uint256","name":"","type":"uint256"}],"stateMutability":"view","type":"function"},{"inputs":[{"internalType":"address","name":"token","type":"address"},{"internalType":"uint256","name":"amount","type":"uint256"}],"name":"emergencyWithdraw","outputs":[],"stateMutability":"nonpayable","type":"function"},{"inputs":[{"internalType":"uint256","name":"","type":"uint256"}],"name":"feeTiers","outputs":[{"internalType":"uint256","name":"minAmount","type":"uint256"},{"internalType":"uint256","name":"maxAmount","type":"uint256"},{"internalType":"uint256","name":"feeRate","type":"uint256"}],"stateMutability":"view","type":"function"},{"inputs":[{"internalType":"address","name":"token","type":"address"},{"internalType":"uint256","name":"amount","type":"uint256"}],"name":"getNetAmount","outputs":[{"internalType":"uint256","name":"netAmount","type":"uint256"}],"stateMutability":"view","type":"function"},{"inputs":[{"internalType":"address","name":"token","type":"address"}],"name":"getTotalFeesCollected","outputs":[{"internalType":"uint256","name":"total","type":"uint256"}],"stateMutability":"view","type":"function"},{"inputs":[{"internalType":"address","name":"user","type":"address"},{"internalType":"address","name":"token","type":"address"}],"name":"getUserFeeContribution","outputs":[{"internalType":"uint256","name":"contribution","type":"uint256"}],"stateMutability":"view","type":"function"},{"inputs":[{"internalType":"address","name":"token","type":"address"}],"name":"isTokenSupported","outputs":[{"internalType":"bool","name":"supported","type":"bool"}],"stateMutability":"view","type":"function"},{"inputs":[],"name":"owner","outputs":[{"internalType":"address","name":"","type":"address"}],"stateMutability":"view","type":"function"},{"inputs":[],"name":"pause","outputs":[],"stateMutability":"nonpayable","type":"function"},{"inputs":[],"name":"paused","outputs":[{"internalType":"bool","name":"","type":"bool"}],"stateMutability":"view","type":"function"},{"inputs":[{"internalType":"address","name":"","type":"address"}],"name":"priceFeeds","outputs":[{"internalType":"address","name":"","type":"address"}],"stateMutability":"view","type":"function"},{"inputs":[{"internalType":"address","name":"token","type":"address"},{"internalType":"address","name":"recipient","type":"address"},{"internalType":"uint256","name":"amount","type":"uint256"},{"internalType":"string","name":"paymentType","type":"string"}],"name":"processPayment","outputs":[],"stateMutability":"nonpayable","type":"function"},{"inputs":[{"internalType":"address","name":"tokenIn","type":"address"},{"internalType":"address","name":"tokenOut","type":"address"},{"internalType":"uint256","name":"amountIn","type":"uint256"},{"internalType":"uint256","name":"amountOutMin","type":"uint256"},{"internalType":"bytes","name":"swapData","type":"bytes"}],"name":"processSwapWithFee","outputs":[],"stateMutability":"nonpayable","type":"function"},{"inputs":[{"internalType":"address","name":"token","type":"address"}],"name":"removeSupportedToken","outputs":[],"stateMutability":"nonpayable","type":"function"},{"inputs":[],"name":"renounceOwnership","outputs":[],"stateMutability":"nonpayable","type":"function"},{"inputs":[{"internalType":"address","name":"","type":"address"}],"name":"supportedTokens","outputs":[{"internalType":"bool","name":"","type":"bool"}],"stateMutability":"view","type":"function"},{"inputs":[{"internalType":"address","name":"","type":"address"}],"name":"totalFeesCollected","outputs":[{"internalType":"uint256","name":"","type":"uint256"}],"stateMutability":"view","type":"function"},{"inputs":[{"internalType":"address","name":"newOwner","type":"address"}],"name":"transferOwnership","outputs":[],"stateMutability":"nonpayable","type":"function"},{"inputs":[],"name":"unpause","outputs":[],"stateMutability":"nonpayable","type":"function"},{"inputs":[{"internalType":"address","name":"","type":"address"},{"internalType":"address","name":"","type":"address"}],"name":"userFeesContributed","outputs":[{"internalType":"uint256","name":"","type":"uint256"}],"stateMutability":"view","type":"function"}],"evm":{"bytecode":{"linkReferences":{},"object":"608060405234801561001057600080fd5b506001600055338061003c57604051631e4fbdf760e01b81526000600482015260240160405180910390fd5b610045816103d6565b50600460209081527f90934c7e0a5c1244a46abd24b6d16aec342578774b7252724eb1b7245277df528054600160ff1991821681179092557f8eb4dcf31688ed8342b95386ef5cde6fb31d23e29d72ccba4f0f2a72266e202880548216831790557f0d4547073deae259752e1528ac6a7304d89417bf936e0f49cf14b2b1aad12bf580548216831790557f35bca65218442bd256547eb7b9287584c1bcc4f99d061ef72154a0e46cbbeed580548216831790557fca3fa2c34c9305cd89baa9d855128027429df1fa577ac293231eb63b67f287c980548216831790557f803f555bd52dc6fe6fc4b0a4ad82ab149c1e5b85e3bc32884cf6f2a6001a3db880548216831790557ffcd14214961456acefa2454fbfaa1c455cf4f125b18987ceaa555864fcc3c5a880548216831790557f6021c751abd982939d1cf765678acde1b0756bfd6fcfbda620f6fb72a972d34780548216831790557ffde29322e49633995830ef9ed3866f0938b2b3f8de4e02572db8a43b08ea518b80548216831790557f79152307ddf7e27a385e7c87818d0325e718ea4f83e7173ad97cc69c4a3f22cf80548216831790557f95fc35433a00ed21497b58ba26b25aacdd02978c09d0f5d970d065cbf98b55bc805490911682179055604080516060808201835260008083526305f5e1008387019081526064848601908152600280548089018255818552955160039687027f405787fa12a823e0f2b7631cc41b3ba8828b3321ca811111fa75cd3aa3bb5ace8181019290925593517f405787fa12a823e0f2b7631cc41b3ba8828b3321ca811111fa75cd3aa3bb5acf8086019190915592517f405787fa12a823e0f2b7631cc41b3ba8828b3321ca811111fa75cd3aa3bb5ad094850155875180870189526305f5e1018152631dcd6500818c01908152604b828b019081528454808d0186558589529251928a0280850193909355905182860155519085015587518087018952631dcd650181526377359400818c019081526032828b019081528454808d0186558589529251928a02808501939093559051828601555190850155875180870189526377359401815264012a05f200818c01908152601e828b019081528454808d0186558589529251928a028085019390935590518286015551908501558751958601885264012a05f2018652600019998601998a5260149786019788528154988901825593529251959093029081019490945593519383019390935551910155610428565b600180546001600160a01b038381166001600160a01b0319831681179093556040519116919082907f8be0079c531659141344cd1fd0a4f28419497f9722a3daafe3b4186f6b6457e090600090a35050565b611559806104376000396000f3fe608060405234801561001057600080fd5b50600436106101585760003560e01c806388a40eed116100c3578063b6304c561161007c578063b6304c5614610359578063b8e9d3c11461036c578063bbe96b001461037f578063e1f1c4a714610392578063ebd090541461039b578063f2fde38b146103b657600080fd5b806388a40eed146102b25780638b28ab1e146102d25780638da5cb5b146102e557806395ccea671461030a5780639dcb511a1461031d578063b43623f31461034657600080fd5b806368c4ac261161011557806368c4ac261461022d5780636d69fcaf14610250578063715018a61461026357806375151b631461026b57806376319190146102975780638456cb59146102aa57600080fd5b806307ad24d61461015d578063230ed44a146101995780633bd54d0d146101c75780633f4ba83a146101f25780635c975abb146101fc5780635e729f5d1461021a575b600080fd5b61018661016b3660046111e8565b6001600160a01b031660009081526005602052604090205490565b6040519081526020015b60405180910390f35b6101ac6101a736600461120a565b6103c9565b60408051938452602084019290925290820152606001610190565b6101866101d5366004611223565b600660209081526000928352604080842090915290825290205481565b6101fa6103fc565b005b600154600160a01b900460ff165b6040519015158152602001610190565b610186610228366004611223565b61040e565b61020a61023b3660046111e8565b60046020526000908152604090205460ff1681565b6101fa61025e3660046111e8565b61043b565b6101fa6104e2565b61020a6102793660046111e8565b6001600160a01b031660009081526004602052604090205460ff1690565b6101fa6102a53660046111e8565b6104f4565b6101fa610545565b6101866102c03660046111e8565b60056020526000908152604090205481565b6101866102e0366004611256565b610555565b6001546001600160a01b03165b6040516001600160a01b039091168152602001610190565b6101fa610318366004611256565b610591565b6102f261032b3660046111e8565b6003602052600090815260409020546001600160a01b031681565b6101fa610354366004611280565b610666565b61018661036736600461120a565b610ad9565b61018661037a366004611256565b610b82565b6101fa61038d36600461133c565b610ba3565b61018661271081565b6102f273037eb04ad9ddff984f44ce5941d14b8ea378145981565b6101fa6103c43660046111e8565b610fc5565b600281815481106103d957600080fd5b600091825260209091206003909102018054600182015460029092015490925083565b610404611003565b61040c611030565b565b6001600160a01b038083166000908152600660209081526040808320938516835292905220545b92915050565b610443611003565b6001600160a01b0381166104965760405162461bcd60e51b8152602060048201526015602482015274496e76616c696420746f6b656e206164647265737360581b60448201526064015b60405180910390fd5b6001600160a01b038116600081815260046020526040808220805460ff19166001179055517f784c8f4dbf0ffedd6e72c76501c545a70f8b203b30a26ce542bf92ba87c248a49190a250565b6104ea611003565b61040c6000611085565b6104fc611003565b6001600160a01b038116600081815260046020526040808220805460ff19169055517f4c910b69fe65a61f7531b9c5042b2329ca7179c77290aa7e2eb3afa3c8511fd39190a250565b61054d611003565b61040c6110d7565b600080610562848461111a565b9050600061056f82610ad9565b905061271061057e828661142e565b6105889190611445565b95945050505050565b610599611003565b60405163a9059cbb60e01b815273037eb04ad9ddff984f44ce5941d14b8ea37814596004820152602481018290526001600160a01b0383169063a9059cbb906044016020604051808303816000875af11580156105fa573d6000803e3d6000fd5b505050506040513d601f19601f8201168201806040525081019061061e9190611467565b50816001600160a01b03167fc0819c13be868895eb93e40eaceb96de976442fa1d404e5c55f14bb65a8c489a8260405161065a91815260200190565b60405180910390a25050565b61066e61114d565b610676611177565b6001600160a01b03861660009081526004602052604090205460ff166106de5760405162461bcd60e51b815260206004820152601960248201527f496e70757420746f6b656e206e6f7420737570706f7274656400000000000000604482015260640161048d565b6001600160a01b03851660009081526004602052604090205460ff166107465760405162461bcd60e51b815260206004820152601a60248201527f4f757470757420746f6b656e206e6f7420737570706f72746564000000000000604482015260640161048d565b600084116107965760405162461bcd60e51b815260206004820152601d60248201527f416d6f756e74206d7573742062652067726561746572207468616e2030000000604482015260640161048d565b8560006107a38287610555565b905060006107b18288611489565b6040516323b872dd60e01b8152336004820152306024820152604481018990529091506001600160a01b038416906323b872dd906064016020604051808303816000875af1158015610807573d6000803e3d6000fd5b505050506040513d601f19601f8201168201806040525081019061082b9190611467565b6108695760405162461bcd60e51b815260206004820152600f60248201526e151c985b9cd9995c8819985a5b1959608a1b604482015260640161048d565b60405163a9059cbb60e01b815273037eb04ad9ddff984f44ce5941d14b8ea37814596004820152602481018390526001600160a01b0384169063a9059cbb906044016020604051808303816000875af11580156108ca573d6000803e3d6000fd5b505050506040513d601f19601f820116820180604052508101906108ee9190611467565b6109305760405162461bcd60e51b8152602060048201526013602482015272119959481d1c985b9cd9995c8819985a5b1959606a1b604482015260640161048d565b60405163095ea7b360e01b815273cf77a3ba9a5ca399b7c97c74d54e5b1beb874e436004820152602481018290526001600160a01b0384169063095ea7b3906044016020604051808303816000875af1158015610991573d6000803e3d6000fd5b505050506040513d601f19601f820116820180604052508101906109b59190611467565b6109f35760405162461bcd60e51b815260206004820152600f60248201526e105c1c1c9bdd985b0819985a5b1959608a1b604482015260640161048d565b6001600160a01b03891660009081526005602052604081208054849290610a1b90849061149c565b90915550503360009081526006602090815260408083206001600160a01b038d16845290915281208054849290610a5390849061149c565b90915550506040516001600160a01b038a169033907fff7ae9e595f6a1d98a91d89005947348cae8741387fac7b9dc472993f872945690610abc908b9087909182526020820152606060408201819052600490820152630737761760e41b608082015260a00190565b60405180910390a3505050610ad16001600055565b505050505050565b6000805b600254811015610b795760028181548110610afa57610afa6114af565b9060005260206000209060030201600001548310158015610b3f575060028181548110610b2957610b296114af565b9060005260206000209060030201600101548311155b15610b715760028181548110610b5757610b576114af565b906000526020600020906003020160020154915050919050565b600101610add565b50601492915050565b600080610b8f8484610555565b9050610b9b8184611489565b949350505050565b610bab61114d565b610bb3611177565b6001600160a01b03841660009081526004602052604090205460ff16610c115760405162461bcd60e51b8152602060048201526013602482015272151bdad95b881b9bdd081cdd5c1c1bdc9d1959606a1b604482015260640161048d565b6001600160a01b038316610c5b5760405162461bcd60e51b8152602060048201526011602482015270125b9d985b1a59081c9958da5c1a595b9d607a1b604482015260640161048d565b60008211610cab5760405162461bcd60e51b815260206004820152601d60248201527f416d6f756e74206d7573742062652067726561746572207468616e2030000000604482015260640161048d565b836000610cb88285610555565b90506000610cc68286611489565b6040516323b872dd60e01b8152336004820152306024820152604481018790529091506001600160a01b038416906323b872dd906064016020604051808303816000875af1158015610d1c573d6000803e3d6000fd5b505050506040513d601f19601f82011682018060405250810190610d409190611467565b610d7e5760405162461bcd60e51b815260206004820152600f60248201526e151c985b9cd9995c8819985a5b1959608a1b604482015260640161048d565b60405163a9059cbb60e01b81526001600160a01b0387811660048301526024820183905284169063a9059cbb906044016020604051808303816000875af1158015610dcd573d6000803e3d6000fd5b505050506040513d601f19601f82011682018060405250810190610df19190611467565b610e3d5760405162461bcd60e51b815260206004820152601960248201527f526563697069656e74207472616e73666572206661696c656400000000000000604482015260640161048d565b60405163a9059cbb60e01b815273037eb04ad9ddff984f44ce5941d14b8ea37814596004820152602481018390526001600160a01b0384169063a9059cbb906044016020604051808303816000875af1158015610e9e573d6000803e3d6000fd5b505050506040513d601f19601f82011682018060405250810190610ec29190611467565b610f045760405162461bcd60e51b8152602060048201526013602482015272119959481d1c985b9cd9995c8819985a5b1959606a1b604482015260640161048d565b6001600160a01b03871660009081526005602052604081208054849290610f2c90849061149c565b90915550503360009081526006602090815260408083206001600160a01b038b16845290915281208054849290610f6490849061149c565b90915550506040516001600160a01b0388169033907fff7ae9e595f6a1d98a91d89005947348cae8741387fac7b9dc472993f872945690610faa90899087908a906114c5565b60405180910390a3505050610fbf6001600055565b50505050565b610fcd611003565b6001600160a01b038116610ff757604051631e4fbdf760e01b81526000600482015260240161048d565b61100081611085565b50565b6001546001600160a01b0316331461040c5760405163118cdaa760e01b815233600482015260240161048d565b6110386111a2565b6001805460ff60a01b191690557f5db9ee0a495bf2e6ff9c91a7834c1ba4fdd244a5e8aa4e537bd38aeae4b073aa335b6040516001600160a01b03909116815260200160405180910390a1565b600180546001600160a01b038381166001600160a01b0319831681179093556040519116919082907f8be0079c531659141344cd1fd0a4f28419497f9722a3daafe3b4186f6b6457e090600090a35050565b6110df611177565b6001805460ff60a01b1916600160a01b1790557f62e78cea01bee320cd4e420270b5ea74000d11b0c9f74754ebdbfc544b05a2586110683390565b60006001600160a01b03831673833589fcd6edb6e08f4c7c32d4f71b54bda0291303611147575080610435565b50919050565b60026000540361117057604051633ee5aeb560e01b815260040160405180910390fd5b6002600055565b600154600160a01b900460ff161561040c5760405163d93c066560e01b815260040160405180910390fd5b600154600160a01b900460ff1661040c57604051638dfc202b60e01b815260040160405180910390fd5b80356001600160a01b03811681146111e357600080fd5b919050565b6000602082840312156111fa57600080fd5b611203826111cc565b9392505050565b60006020828403121561121c57600080fd5b5035919050565b6000806040838503121561123657600080fd5b61123f836111cc565b915061124d602084016111cc565b90509250929050565b6000806040838503121561126957600080fd5b611272836111cc565b946020939093013593505050565b60008060008060008060a0878903121561129957600080fd5b6112a2876111cc565b95506112b0602088016111cc565b94506040870135935060608701359250608087013567ffffffffffffffff808211156112db57600080fd5b818901915089601f8301126112ef57600080fd5b8135818111156112fe57600080fd5b8a602082850101111561131057600080fd5b6020830194508093505050509295509295509295565b634e487b7160e01b600052604160045260246000fd5b6000806000806080858703121561135257600080fd5b61135b856111cc565b9350611369602086016111cc565b925060408501359150606085013567ffffffffffffffff8082111561138d57600080fd5b818701915087601f8301126113a157600080fd5b8135818111156113b3576113b3611326565b604051601f8201601f19908116603f011681019083821181831017156113db576113db611326565b816040528281528a60208487010111156113f457600080fd5b82602086016020830137600060208483010152809550505050505092959194509250565b634e487b7160e01b600052601160045260246000fd5b808202811582820484141761043557610435611418565b60008261146257634e487b7160e01b600052601260045260246000fd5b500490565b60006020828403121561147957600080fd5b8151801515811461120357600080fd5b8181038181111561043557610435611418565b8082018082111561043557610435611418565b634e487b7160e01b600052603260045260246000fd5b8381526000602084602084015260606040840152835180606085015260005b81811015611500578581018301518582016080015282016114e4565b506000608082860101526080601f19601f8301168501019250505094935050505056fea264697066735822122043d6dc3f87b65c4479a051e9751718ffe4921fcbbbcdb8d53000eb86337468e264736f6c63430008160033","opcodes":"PUSH1 0x80 PUSH1 0x40 MSTORE CALLVALUE DUP1 ISZERO PUSH2 0x10 JUMPI PUSH1 0x0 DUP1 REVERT JUMPDEST POP PUSH1 0x1 PUSH1 0x0 SSTORE CALLER DUP1 PUSH2 0x3C JUMPI PUSH1 0x40 MLOAD PUSH4 0x1E4FBDF7 PUSH1 0xE0 SHL DUP2 MSTORE PUSH1 0x0 PUSH1 0x4 DUP3 ADD MSTORE PUSH1 0x24 ADD PUSH1 0x40 MLOAD DUP1 SWAP2 SUB SWAP1 REVERT JUMPDEST PUSH2 0x45 DUP2 PUSH2 0x3D6 JUMP JUMPDEST POP PUSH1 0x4 PUSH1 0x20 SWAP1 DUP2 MSTORE PUSH32 0x90934C7E0A5C1244A46ABD24B6D16AEC342578774B7252724EB1B7245277DF52 DUP1 SLOAD PUSH1 0x1 PUSH1 0xFF NOT SWAP2 DUP3 AND DUP2 OR SWAP1 SWAP3 SSTORE PUSH32 0x8EB4DCF31688ED8342B95386EF5CDE6FB31D23E29D72CCBA4F0F2A72266E2028 DUP1 SLOAD DUP3 AND DUP4 OR SWAP1 SSTORE PUSH32 0xD4547073DEAE259752E1528AC6A7304D89417BF936E0F49CF14B2B1AAD12BF5 DUP1 SLOAD DUP3 AND DUP4 OR SWAP1 SSTORE PUSH32 0x35BCA65218442BD256547EB7B9287584C1BCC4F99D061EF72154A0E46CBBEED5 DUP1 SLOAD DUP3 AND DUP4 OR SWAP1 SSTORE PUSH32 0xCA3FA2C34C9305CD89BAA9D855128027429DF1FA577AC293231EB63B67F287C9 DUP1 SLOAD DUP3 AND DUP4 OR SWAP1 SSTORE PUSH32 0x803F555BD52DC6FE6FC4B0A4AD82AB149C1E5B85E3BC32884CF6F2A6001A3DB8 DUP1 SLOAD DUP3 AND DUP4 OR SWAP1 SSTORE PUSH32 0xFCD14214961456ACEFA2454FBFAA1C455CF4F125B18987CEAA555864FCC3C5A8 DUP1 SLOAD DUP3 AND DUP4 OR SWAP1 SSTORE PUSH32 0x6021C751ABD982939D1CF765678ACDE1B0756BFD6FCFBDA620F6FB72A972D347 DUP1 SLOAD DUP3 AND DUP4 OR SWAP1 SSTORE PUSH32 0xFDE29322E49633995830EF9ED3866F0938B2B3F8DE4E02572DB8A43B08EA518B DUP1 SLOAD DUP3 AND DUP4 OR SWAP1 SSTORE PUSH32 0x79152307DDF7E27A385E7C87818D0325E718EA4F83E7173AD97CC69C4A3F22CF DUP1 SLOAD DUP3 AND DUP4 OR SWAP1 SSTORE PUSH32 0x95FC35433A00ED21497B58BA26B25AACDD02978C09D0F5D970D065CBF98B55BC DUP1 SLOAD SWAP1 SWAP2 AND DUP3 OR SWAP1 SSTORE PUSH1 0x40 DUP1 MLOAD PUSH1 0x60 DUP1 DUP3 ADD DUP4 MSTORE PUSH1 0x0 DUP1 DUP4 MSTORE PUSH4 0x5F5E100 DUP4 DUP8 ADD SWAP1 DUP2 MSTORE PUSH1 0x64 DUP5 DUP7 ADD SWAP1 DUP2 MSTORE PUSH1 0x2 DUP1 SLOAD DUP1 DUP10 ADD DUP3 SSTORE DUP2 DUP6 MSTORE SWAP6 MLOAD PUSH1 0x3 SWAP7 DUP8 MUL PUSH32 0x405787FA12A823E0F2B7631CC41B3BA8828B3321CA811111FA75CD3AA3BB5ACE DUP2 DUP2 ADD SWAP3 SWAP1 SWAP3 SSTORE SWAP4 MLOAD PUSH32 0x405787FA12A823E0F2B7631CC41B3BA8828B3321CA811111FA75CD3AA3BB5ACF DUP1 DUP7 ADD SWAP2 SWAP1 SWAP2 SSTORE SWAP3 MLOAD PUSH32 0x405787FA12A823E0F2B7631CC41B3BA8828B3321CA811111FA75CD3AA3BB5AD0 SWAP5 DUP6 ADD SSTORE DUP8 MLOAD DUP1 DUP8 ADD DUP10 MSTORE PUSH4 0x5F5E101 DUP2 MSTORE PUSH4 0x1DCD6500 DUP2 DUP13 ADD SWAP1 DUP2 MSTORE PUSH1 0x4B DUP3 DUP12 ADD SWAP1 DUP2 MSTORE DUP5 SLOAD DUP1 DUP14 ADD DUP7 SSTORE DUP6 DUP10 MSTORE SWAP3 MLOAD SWAP3 DUP11 MUL DUP1 DUP6 ADD SWAP4 SWAP1 SWAP4 SSTORE SWAP1 MLOAD DUP3 DUP7 ADD SSTORE MLOAD SWAP1 DUP6 ADD SSTORE DUP8 MLOAD DUP1 DUP8 ADD DUP10 MSTORE PUSH4 0x1DCD6501 DUP2 MSTORE PUSH4 0x77359400 DUP2 DUP13 ADD SWAP1 DUP2 MSTORE PUSH1 0x32 DUP3 DUP12 ADD SWAP1 DUP2 MSTORE DUP5 SLOAD DUP1 DUP14 ADD DUP7 SSTORE DUP6 DUP10 MSTORE SWAP3 MLOAD SWAP3 DUP11 MUL DUP1 DUP6 ADD SWAP4 SWAP1 SWAP4 SSTORE SWAP1 MLOAD DUP3 DUP7 ADD SSTORE MLOAD SWAP1 DUP6 ADD SSTORE DUP8 MLOAD DUP1 DUP8 ADD DUP10 MSTORE PUSH4 0x77359401 DUP2 MSTORE PUSH5 0x12A05F200 DUP2 DUP13 ADD SWAP1 DUP2 MSTORE PUSH1 0x1E DUP3 DUP12 ADD SWAP1 DUP2 MSTORE DUP5 SLOAD DUP1 DUP14 ADD DUP7 SSTORE DUP6 DUP10 MSTORE SWAP3 MLOAD SWAP3 DUP11 MUL DUP1 DUP6 ADD SWAP4 SWAP1 SWAP4 SSTORE SWAP1 MLOAD DUP3 DUP7 ADD SSTORE MLOAD SWAP1 DUP6 ADD SSTORE DUP8 MLOAD SWAP6 DUP7 ADD DUP9 MSTORE PUSH5 0x12A05F201 DUP7 MSTORE PUSH1 0x0 NOT SWAP10 DUP7 ADD SWAP10 DUP11 MSTORE PUSH1 0x14 SWAP8 DUP7 ADD SWAP8 DUP9 MSTORE DUP2 SLOAD SWAP9 DUP10 ADD DUP3 SSTORE SWAP4 MSTORE SWAP3 MLOAD SWAP6 SWAP1 SWAP4 MUL SWAP1 DUP2 ADD SWAP5 SWAP1 SWAP5 SSTORE SWAP4 MLOAD SWAP4 DUP4 ADD SWAP4 SWAP1 SWAP4 SSTORE MLOAD SWAP2 ADD SSTORE PUSH2 0x428 JUMP JUMPDEST PUSH1 0x1 DUP1 SLOAD PUSH1 0x1 PUSH1 0x1 PUSH1 0xA0 SHL SUB DUP4 DUP2 AND PUSH1 0x1 PUSH1 0x1 PUSH1 0xA0 SHL SUB NOT DUP4 AND DUP2 OR SWAP1 SWAP4 SSTORE PUSH1 0x40 MLOAD SWAP2 AND SWAP2 SWAP1 DUP3 SWAP1 PUSH32 0x8BE0079C531659141344CD1FD0A4F28419497F9722A3DAAFE3B4186F6B6457E0 SWAP1 PUSH1 0x0 SWAP1 LOG3 POP POP JUMP JUMPDEST PUSH2 0x1559 DUP1 PUSH2 0x437 PUSH1 0x0 CODECOPY PUSH1 0x0 RETURN INVALID PUSH1 0x80 PUSH1 0x40 MSTORE CALLVALUE DUP1 ISZERO PUSH2 0x10 JUMPI PUSH1 0x0 DUP1 REVERT JUMPDEST POP PUSH1 0x4 CALLDATASIZE LT PUSH2 0x158 JUMPI PUSH1 0x0 CALLDATALOAD PUSH1 0xE0 SHR DUP1 PUSH4 0x88A40EED GT PUSH2 0xC3 JUMPI DUP1 PUSH4 0xB6304C56 GT PUSH2 0x7C JUMPI DUP1 PUSH4 0xB6304C56 EQ PUSH2 0x359 JUMPI DUP1 PUSH4 0xB8E9D3C1 EQ PUSH2 0x36C JUMPI DUP1 PUSH4 0xBBE96B00 EQ PUSH2 0x37F JUMPI DUP1 PUSH4 0xE1F1C4A7 EQ PUSH2 0x392 JUMPI DUP1 PUSH4 0xEBD09054 EQ PUSH2 0x39B JUMPI DUP1 PUSH4 0xF2FDE38B EQ PUSH2 0x3B6 JUMPI PUSH1 0x0 DUP1 REVERT JUMPDEST DUP1 PUSH4 0x88A40EED EQ PUSH2 0x2B2 JUMPI DUP1 PUSH4 0x8B28AB1E EQ PUSH2 0x2D2 JUMPI DUP1 PUSH4 0x8DA5CB5B EQ PUSH2 0x2E5 JUMPI DUP1 PUSH4 0x95CCEA67 EQ PUSH2 0x30A JUMPI DUP1 PUSH4 0x9DCB511A EQ PUSH2 0x31D JUMPI DUP1 PUSH4 0xB43623F3 EQ PUSH2 0x346 JUMPI PUSH1 0x0 DUP1 REVERT JUMPDEST DUP1 PUSH4 0x68C4AC26 GT PUSH2 0x115 JUMPI DUP1 PUSH4 0x68C4AC26 EQ PUSH2 0x22D JUMPI DUP1 PUSH4 0x6D69FCAF EQ PUSH2 0x250 JUMPI DUP1 PUSH4 0x715018A6 EQ PUSH2 0x263 JUMPI DUP1 PUSH4 0x75151B63 EQ PUSH2 0x26B JUMPI DUP1 PUSH4 0x76319190 EQ PUSH2 0x297 JUMPI DUP1 PUSH4 0x8456CB59 EQ PUSH2 0x2AA JUMPI PUSH1 0x0 DUP1 REVERT JUMPDEST DUP1 PUSH4 0x7AD24D6 EQ PUSH2 0x15D JUMPI DUP1 PUSH4 0x230ED44A EQ PUSH2 0x199 JUMPI DUP1 PUSH4 0x3BD54D0D EQ PUSH2 0x1C7 JUMPI DUP1 PUSH4 0x3F4BA83A EQ PUSH2 0x1F2 JUMPI DUP1 PUSH4 0x5C975ABB EQ PUSH2 0x1FC JUMPI DUP1 PUSH4 0x5E729F5D EQ PUSH2 0x21A JUMPI JUMPDEST PUSH1 0x0 DUP1 REVERT JUMPDEST PUSH2 0x186 PUSH2 0x16B CALLDATASIZE PUSH1 0x4 PUSH2 0x11E8 JUMP JUMPDEST PUSH1 0x1 PUSH1 0x1 PUSH1 0xA0 SHL SUB AND PUSH1 0x0 SWAP1 DUP2 MSTORE PUSH1 0x5 PUSH1 0x20 MSTORE PUSH1 0x40 SWAP1 KECCAK256 SLOAD SWAP1 JUMP JUMPDEST PUSH1 0x40 MLOAD SWAP1 DUP2 MSTORE PUSH1 0x20 ADD JUMPDEST PUSH1 0x40 MLOAD DUP1 SWAP2 SUB SWAP1 RETURN JUMPDEST PUSH2 0x1AC PUSH2 0x1A7 CALLDATASIZE PUSH1 0x4 PUSH2 0x120A JUMP JUMPDEST PUSH2 0x3C9 JUMP JUMPDEST PUSH1 0x40 DUP1 MLOAD SWAP4 DUP5 MSTORE PUSH1 0x20 DUP5 ADD SWAP3 SWAP1 SWAP3 MSTORE SWAP1 DUP3 ADD MSTORE PUSH1 0x60 ADD PUSH2 0x190 JUMP JUMPDEST PUSH2 0x186 PUSH2 0x1D5 CALLDATASIZE PUSH1 0x4 PUSH2 0x1223 JUMP JUMPDEST PUSH1 0x6 PUSH1 0x20 SWAP1 DUP2 MSTORE PUSH1 0x0 SWAP3 DUP4 MSTORE PUSH1 0x40 DUP1 DUP5 KECCAK256 SWAP1 SWAP2 MSTORE SWAP1 DUP3 MSTORE SWAP1 KECCAK256 SLOAD DUP2 JUMP JUMPDEST PUSH2 0x1FA PUSH2 0x3FC JUMP JUMPDEST STOP JUMPDEST PUSH1 0x1 SLOAD PUSH1 0x1 PUSH1 0xA0 SHL SWAP1 DIV PUSH1 0xFF AND JUMPDEST PUSH1 0x40 MLOAD SWAP1 ISZERO ISZERO DUP2 MSTORE PUSH1 0x20 ADD PUSH2 0x190 JUMP JUMPDEST PUSH2 0x186 PUSH2 0x228 CALLDATASIZE PUSH1 0x4 PUSH2 0x1223 JUMP JUMPDEST PUSH2 0x40E JUMP JUMPDEST PUSH2 0x20A PUSH2 0x23B CALLDATASIZE PUSH1 0x4 PUSH2 0x11E8 JUMP JUMPDEST PUSH1 0x4 PUSH1 0x20 MSTORE PUSH1 0x0 SWAP1 DUP2 MSTORE PUSH1 0x40 SWAP1 KECCAK256 SLOAD PUSH1 0xFF AND DUP2 JUMP JUMPDEST PUSH2 0x1FA PUSH2 0x25E CALLDATASIZE PUSH1 0x4 PUSH2 0x11E8 JUMP JUMPDEST PUSH2 0x43B JUMP JUMPDEST PUSH2 0x1FA PUSH2 0x4E2 JUMP JUMPDEST PUSH2 0x20A PUSH2 0x279 CALLDATASIZE PUSH1 0x4 PUSH2 0x11E8 JUMP JUMPDEST PUSH1 0x1 PUSH1 0x1 PUSH1 0xA0 SHL SUB AND PUSH1 0x0 SWAP1 DUP2 MSTORE PUSH1 0x4 PUSH1 0x20 MSTORE PUSH1 0x40 SWAP1 KECCAK256 SLOAD PUSH1 0xFF AND SWAP1 JUMP JUMPDEST PUSH2 0x1FA PUSH2 0x2A5 CALLDATASIZE PUSH1 0x4 PUSH2 0x11E8 JUMP JUMPDEST PUSH2 0x4F4 JUMP JUMPDEST PUSH2 0x1FA PUSH2 0x545 JUMP JUMPDEST PUSH2 0x186 PUSH2 0x2C0 CALLDATASIZE PUSH1 0x4 PUSH2 0x11E8 JUMP JUMPDEST PUSH1 0x5 PUSH1 0x20 MSTORE PUSH1 0x0 SWAP1 DUP2 MSTORE PUSH1 0x40 SWAP1 KECCAK256 SLOAD DUP2 JUMP JUMPDEST PUSH2 0x186 PUSH2 0x2E0 CALLDATASIZE PUSH1 0x4 PUSH2 0x1256 JUMP JUMPDEST PUSH2 0x555 JUMP JUMPDEST PUSH1 0x1 SLOAD PUSH1 0x1 PUSH1 0x1 PUSH1 0xA0 SHL SUB AND JUMPDEST PUSH1 0x40 MLOAD PUSH1 0x1 PUSH1 0x1 PUSH1 0xA0 SHL SUB SWAP1 SWAP2 AND DUP2 MSTORE PUSH1 0x20 ADD PUSH2 0x190 JUMP JUMPDEST PUSH2 0x1FA PUSH2 0x318 CALLDATASIZE PUSH1 0x4 PUSH2 0x1256 JUMP JUMPDEST PUSH2 0x591 JUMP JUMPDEST PUSH2 0x2F2 PUSH2 0x32B CALLDATASIZE PUSH1 0x4 PUSH2 0x11E8 JUMP JUMPDEST PUSH1 0x3 PUSH1 0x20 MSTORE PUSH1 0x0 SWAP1 DUP2 MSTORE PUSH1 0x40 SWAP1 KECCAK256 SLOAD PUSH1 0x1 PUSH1 0x1 PUSH1 0xA0 SHL SUB AND DUP2 JUMP JUMPDEST PUSH2 0x1FA PUSH2 0x354 CALLDATASIZE PUSH1 0x4 PUSH2 0x1280 JUMP JUMPDEST PUSH2 0x666 JUMP JUMPDEST PUSH2 0x186 PUSH2 0x367 CALLDATASIZE PUSH1 0x4 PUSH2 0x120A JUMP JUMPDEST PUSH2 0xAD9 JUMP JUMPDEST PUSH2 0x186 PUSH2 0x37A CALLDATASIZE PUSH1 0x4 PUSH2 0x1256 JUMP JUMPDEST PUSH2 0xB82 JUMP JUMPDEST PUSH2 0x1FA PUSH2 0x38D CALLDATASIZE PUSH1 0x4 PUSH2 0x133C JUMP JUMPDEST PUSH2 0xBA3 JUMP JUMPDEST PUSH2 0x186 PUSH2 0x2710 DUP2 JUMP JUMPDEST PUSH2 0x2F2 PUSH20 0x37EB04AD9DDFF984F44CE5941D14B8EA3781459 DUP2 JUMP JUMPDEST PUSH2 0x1FA PUSH2 0x3C4 CALLDATASIZE PUSH1 0x4 PUSH2 0x11E8 JUMP JUMPDEST PUSH2 0xFC5 JUMP JUMPDEST PUSH1 0x2 DUP2 DUP2 SLOAD DUP2 LT PUSH2 0x3D9 JUMPI PUSH1 0x0 DUP1 REVERT JUMPDEST PUSH1 0x0 SWAP2 DUP3 MSTORE PUSH1 0x20 SWAP1 SWAP2 KECCAK256 PUSH1 0x3 SWAP1 SWAP2 MUL ADD DUP1 SLOAD PUSH1 0x1 DUP3 ADD SLOAD PUSH1 0x2 SWAP1 SWAP3 ADD SLOAD SWAP1 SWAP3 POP DUP4 JUMP JUMPDEST PUSH2 0x404 PUSH2 0x1003 JUMP JUMPDEST PUSH2 0x40C PUSH2 0x1030 JUMP JUMPDEST JUMP JUMPDEST PUSH1 0x1 PUSH1 0x1 PUSH1 0xA0 SHL SUB DUP1 DUP4 AND PUSH1 0x0 SWAP1 DUP2 MSTORE PUSH1 0x6 PUSH1 0x20 SWAP1 DUP2 MSTORE PUSH1 0x40 DUP1 DUP4 KECCAK256 SWAP4 DUP6 AND DUP4 MSTORE SWAP3 SWAP1 MSTORE KECCAK256 SLOAD JUMPDEST SWAP3 SWAP2 POP POP JUMP JUMPDEST PUSH2 0x443 PUSH2 0x1003 JUMP JUMPDEST PUSH1 0x1 PUSH1 0x1 PUSH1 0xA0 SHL SUB DUP2 AND PUSH2 0x496 JUMPI PUSH1 0x40 MLOAD PUSH3 0x461BCD PUSH1 0xE5 SHL DUP2 MSTORE PUSH1 0x20 PUSH1 0x4 DUP3 ADD MSTORE PUSH1 0x15 PUSH1 0x24 DUP3 ADD MSTORE PUSH21 0x496E76616C696420746F6B656E2061646472657373 PUSH1 0x58 SHL PUSH1 0x44 DUP3 ADD MSTORE PUSH1 0x64 ADD JUMPDEST PUSH1 0x40 MLOAD DUP1 SWAP2 SUB SWAP1 REVERT JUMPDEST PUSH1 0x1 PUSH1 0x1 PUSH1 0xA0 SHL SUB DUP2 AND PUSH1 0x0 DUP2 DUP2 MSTORE PUSH1 0x4 PUSH1 0x20 MSTORE PUSH1 0x40 DUP1 DUP3 KECCAK256 DUP1 SLOAD PUSH1 0xFF NOT AND PUSH1 0x1 OR SWAP1 SSTORE MLOAD PUSH32 0x784C8F4DBF0FFEDD6E72C76501C545A70F8B203B30A26CE542BF92BA87C248A4 SWAP2 SWAP1 LOG2 POP JUMP JUMPDEST PUSH2 0x4EA PUSH2 0x1003 JUMP JUMPDEST PUSH2 0x40C PUSH1 0x0 PUSH2 0x1085 JUMP JUMPDEST PUSH2 0x4FC PUSH2 0x1003 JUMP JUMPDEST PUSH1 0x1 PUSH1 0x1 PUSH1 0xA0 SHL SUB DUP2 AND PUSH1 0x0 DUP2 DUP2 MSTORE PUSH1 0x4 PUSH1 0x20 MSTORE PUSH1 0x40 DUP1 DUP3 KECCAK256 DUP1 SLOAD PUSH1 0xFF NOT AND SWAP1 SSTORE MLOAD PUSH32 0x4C910B69FE65A61F7531B9C5042B2329CA7179C77290AA7E2EB3AFA3C8511FD3 SWAP2 SWAP1 LOG2 POP JUMP JUMPDEST PUSH2 0x54D PUSH2 0x1003 JUMP JUMPDEST PUSH2 0x40C PUSH2 0x10D7 JUMP JUMPDEST PUSH1 0x0 DUP1 PUSH2 0x562 DUP5 DUP5 PUSH2 0x111A JUMP JUMPDEST SWAP1 POP PUSH1 0x0 PUSH2 0x56F DUP3 PUSH2 0xAD9 JUMP JUMPDEST SWAP1 POP PUSH2 0x2710 PUSH2 0x57E DUP3 DUP7 PUSH2 0x142E JUMP JUMPDEST PUSH2 0x588 SWAP2 SWAP1 PUSH2 0x1445 JUMP JUMPDEST SWAP6 SWAP5 POP POP POP POP POP JUMP JUMPDEST PUSH2 0x599 PUSH2 0x1003 JUMP JUMPDEST PUSH1 0x40 MLOAD PUSH4 0xA9059CBB PUSH1 0xE0 SHL DUP2 MSTORE PUSH20 0x37EB04AD9DDFF984F44CE5941D14B8EA3781459 PUSH1 0x4 DUP3 ADD MSTORE PUSH1 0x24 DUP2 ADD DUP3 SWAP1 MSTORE PUSH1 0x1 PUSH1 0x1 PUSH1 0xA0 SHL SUB DUP4 AND SWAP1 PUSH4 0xA9059CBB SWAP1 PUSH1 0x44 ADD PUSH1 0x20 PUSH1 0x40 MLOAD DUP1 DUP4 SUB DUP2 PUSH1 0x0 DUP8 GAS CALL ISZERO DUP1 ISZERO PUSH2 0x5FA JUMPI RETURNDATASIZE PUSH1 0x0 DUP1 RETURNDATACOPY RETURNDATASIZE PUSH1 0x0 REVERT JUMPDEST POP POP POP POP PUSH1 0x40 MLOAD RETURNDATASIZE PUSH1 0x1F NOT PUSH1 0x1F DUP3 ADD AND DUP3 ADD DUP1 PUSH1 0x40 MSTORE POP DUP2 ADD SWAP1 PUSH2 0x61E SWAP2 SWAP1 PUSH2 0x1467 JUMP JUMPDEST POP DUP2 PUSH1 0x1 PUSH1 0x1 PUSH1 0xA0 SHL SUB AND PUSH32 0xC0819C13BE868895EB93E40EACEB96DE976442FA1D404E5C55F14BB65A8C489A DUP3 PUSH1 0x40 MLOAD PUSH2 0x65A SWAP2 DUP2 MSTORE PUSH1 0x20 ADD SWAP1 JUMP JUMPDEST PUSH1 0x40 MLOAD DUP1 SWAP2 SUB SWAP1 LOG2 POP POP JUMP JUMPDEST PUSH2 0x66E PUSH2 0x114D JUMP JUMPDEST PUSH2 0x676 PUSH2 0x1177 JUMP JUMPDEST PUSH1 0x1 PUSH1 0x1 PUSH1 0xA0 SHL SUB DUP7 AND PUSH1 0x0 SWAP1 DUP2 MSTORE PUSH1 0x4 PUSH1 0x20 MSTORE PUSH1 0x40 SWAP1 KECCAK256 SLOAD PUSH1 0xFF AND PUSH2 0x6DE JUMPI PUSH1 0x40 MLOAD PUSH3 0x461BCD PUSH1 0xE5 SHL DUP2 MSTORE PUSH1 0x20 PUSH1 0x4 DUP3 ADD MSTORE PUSH1 0x19 PUSH1 0x24 DUP3 ADD MSTORE PUSH32 0x496E70757420746F6B656E206E6F7420737570706F7274656400000000000000 PUSH1 0x44 DUP3 ADD MSTORE PUSH1 0x64 ADD PUSH2 0x48D JUMP JUMPDEST PUSH1 0x1 PUSH1 0x1 PUSH1 0xA0 SHL SUB DUP6 AND PUSH1 0x0 SWAP1 DUP2 MSTORE PUSH1 0x4 PUSH1 0x20 MSTORE PUSH1 0x40 SWAP1 KECCAK256 SLOAD PUSH1 0xFF AND PUSH2 0x746 JUMPI PUSH1 0x40 MLOAD PUSH3 0x461BCD PUSH1 0xE5 SHL DUP2 MSTORE PUSH1 0x20 PUSH1 0x4 DUP3 ADD MSTORE PUSH1 0x1A PUSH1 0x24 DUP3 ADD MSTORE PUSH32 0x4F757470757420746F6B656E206E6F7420737570706F72746564000000000000 PUSH1 0x44 DUP3 ADD MSTORE PUSH1 0x64 ADD PUSH2 0x48D JUMP JUMPDEST PUSH1 0x0 DUP5 GT PUSH2 0x796 JUMPI PUSH1 0x40 MLOAD PUSH3 0x461BCD PUSH1 0xE5 SHL DUP2 MSTORE PUSH1 0x20 PUSH1 0x4 DUP3 ADD MSTORE PUSH1 0x1D PUSH1 0x24 DUP3 ADD MSTORE PUSH32 0x416D6F756E74206D7573742062652067726561746572207468616E2030000000 PUSH1 0x44 DUP3 ADD MSTORE PUSH1 0x64 ADD PUSH2 0x48D JUMP JUMPDEST DUP6 PUSH1 0x0 PUSH2 0x7A3 DUP3 DUP8 PUSH2 0x555 JUMP JUMPDEST SWAP1 POP PUSH1 0x0 PUSH2 0x7B1 DUP3 DUP9 PUSH2 0x1489 JUMP JUMPDEST PUSH1 0x40 MLOAD PUSH4 0x23B872DD PUSH1 0xE0 SHL DUP2 MSTORE CALLER PUSH1 0x4 DUP3 ADD MSTORE ADDRESS PUSH1 0x24 DUP3 ADD MSTORE PUSH1 0x44 DUP2 ADD DUP10 SWAP1 MSTORE SWAP1 SWAP2 POP PUSH1 0x1 PUSH1 0x1 PUSH1 0xA0 SHL SUB DUP5 AND SWAP1 PUSH4 0x23B872DD SWAP1 PUSH1 0x64 ADD PUSH1 0x20 PUSH1 0x40 MLOAD DUP1 DUP4 SUB DUP2 PUSH1 0x0 DUP8 GAS CALL ISZERO DUP1 ISZERO PUSH2 0x807 JUMPI RETURNDATASIZE PUSH1 0x0 DUP1 RETURNDATACOPY RETURNDATASIZE PUSH1 0x0 REVERT JUMPDEST POP POP POP POP PUSH1 0x40 MLOAD RETURNDATASIZE PUSH1 0x1F NOT PUSH1 0x1F DUP3 ADD AND DUP3 ADD DUP1 PUSH1 0x40 MSTORE POP DUP2 ADD SWAP1 PUSH2 0x82B SWAP2 SWAP1 PUSH2 0x1467 JUMP JUMPDEST PUSH2 0x869 JUMPI PUSH1 0x40 MLOAD PUSH3 0x461BCD PUSH1 0xE5 SHL DUP2 MSTORE PUSH1 0x20 PUSH1 0x4 DUP3 ADD MSTORE PUSH1 0xF PUSH1 0x24 DUP3 ADD MSTORE PUSH15 0x151C985B9CD9995C8819985A5B1959 PUSH1 0x8A SHL PUSH1 0x44 DUP3 ADD MSTORE PUSH1 0x64 ADD PUSH2 0x48D JUMP JUMPDEST PUSH1 0x40 MLOAD PUSH4 0xA9059CBB PUSH1 0xE0 SHL DUP2 MSTORE PUSH20 0x37EB04AD9DDFF984F44CE5941D14B8EA3781459 PUSH1 0x4 DUP3 ADD MSTORE PUSH1 0x24 DUP2 ADD DUP4 SWAP1 MSTORE PUSH1 0x1 PUSH1 0x1 PUSH1 0xA0 SHL SUB DUP5 AND SWAP1 PUSH4 0xA9059CBB SWAP1 PUSH1 0x44 ADD PUSH1 0x20 PUSH1 0x40 MLOAD DUP1 DUP4 SUB DUP2 PUSH1 0x0 DUP8 GAS CALL ISZERO DUP1 ISZERO PUSH2 0x8CA JUMPI RETURNDATASIZE PUSH1 0x0 DUP1 RETURNDATACOPY RETURNDATASIZE PUSH1 0x0 REVERT JUMPDEST POP POP POP POP PUSH1 0x40 MLOAD RETURNDATASIZE PUSH1 0x1F NOT PUSH1 0x1F DUP3 ADD AND DUP3 ADD DUP1 PUSH1 0x40 MSTORE POP DUP2 ADD SWAP1 PUSH2 0x8EE SWAP2 SWAP1 PUSH2 0x1467 JUMP JUMPDEST PUSH2 0x930 JUMPI PUSH1 0x40 MLOAD PUSH3 0x461BCD PUSH1 0xE5 SHL DUP2 MSTORE PUSH1 0x20 PUSH1 0x4 DUP3 ADD MSTORE PUSH1 0x13 PUSH1 0x24 DUP3 ADD MSTORE PUSH19 0x119959481D1C985B9CD9995C8819985A5B1959 PUSH1 0x6A SHL PUSH1 0x44 DUP3 ADD MSTORE PUSH1 0x64 ADD PUSH2 0x48D JUMP JUMPDEST PUSH1 0x40 MLOAD PUSH4 0x95EA7B3 PUSH1 0xE0 SHL DUP2 MSTORE PUSH20 0xCF77A3BA9A5CA399B7C97C74D54E5B1BEB874E43 PUSH1 0x4 DUP3 ADD MSTORE PUSH1 0x24 DUP2 ADD DUP3 SWAP1 MSTORE PUSH1 0x1 PUSH1 0x1 PUSH1 0xA0 SHL SUB DUP5 AND SWAP1 PUSH4 0x95EA7B3 SWAP1 PUSH1 0x44 ADD PUSH1 0x20 PUSH1 0x40 MLOAD DUP1 DUP4 SUB DUP2 PUSH1 0x0 DUP8 GAS CALL ISZERO DUP1 ISZERO PUSH2 0x991 JUMPI RETURNDATASIZE PUSH1 0x0 DUP1 RETURNDATACOPY RETURNDATASIZE PUSH1 0x0 REVERT JUMPDEST POP POP POP POP PUSH1 0x40 MLOAD RETURNDATASIZE PUSH1 0x1F NOT PUSH1 0x1F DUP3 ADD AND DUP3 ADD DUP1 PUSH1 0x40 MSTORE POP DUP2 ADD SWAP1 PUSH2 0x9B5 SWAP2 SWAP1 PUSH2 0x1467 JUMP JUMPDEST PUSH2 0x9F3 JUMPI PUSH1 0x40 MLOAD PUSH3 0x461BCD PUSH1 0xE5 SHL DUP2 MSTORE PUSH1 0x20 PUSH1 0x4 DUP3 ADD MSTORE PUSH1 0xF PUSH1 0x24 DUP3 ADD MSTORE PUSH15 0x105C1C1C9BDD985B0819985A5B1959 PUSH1 0x8A SHL PUSH1 0x44 DUP3 ADD MSTORE PUSH1 0x64 ADD PUSH2 0x48D JUMP JUMPDEST PUSH1 0x1 PUSH1 0x1 PUSH1 0xA0 SHL SUB DUP10 AND PUSH1 0x0 SWAP1 DUP2 MSTORE PUSH1 0x5 PUSH1 0x20 MSTORE PUSH1 0x40 DUP2 KECCAK256 DUP1 SLOAD DUP5 SWAP3 SWAP1 PUSH2 0xA1B SWAP1 DUP5 SWAP1 PUSH2 0x149C JUMP JUMPDEST SWAP1 SWAP2 SSTORE POP POP CALLER PUSH1 0x0 SWAP1 DUP2 MSTORE PUSH1 0x6 PUSH1 0x20 SWAP1 DUP2 MSTORE PUSH1 0x40 DUP1 DUP4 KECCAK256 PUSH1 0x1 PUSH1 0x1 PUSH1 0xA0 SHL SUB DUP14 AND DUP5 MSTORE SWAP1 SWAP2 MSTORE DUP2 KECCAK256 DUP1 SLOAD DUP5 SWAP3 SWAP1 PUSH2 0xA53 SWAP1 DUP5 SWAP1 PUSH2 0x149C JUMP JUMPDEST SWAP1 SWAP2 SSTORE POP POP PUSH1 0x40 MLOAD PUSH1 0x1 PUSH1 0x1 PUSH1 0xA0 SHL SUB DUP11 AND SWAP1 CALLER SWAP1 PUSH32 0xFF7AE9E595F6A1D98A91D89005947348CAE8741387FAC7B9DC472993F8729456 SWAP1 PUSH2 0xABC SWAP1 DUP12 SWAP1 DUP8 SWAP1 SWAP2 DUP3 MSTORE PUSH1 0x20 DUP3 ADD MSTORE PUSH1 0x60 PUSH1 0x40 DUP3 ADD DUP2 SWAP1 MSTORE PUSH1 0x4 SWAP1 DUP3 ADD MSTORE PUSH4 0x7377617 PUSH1 0xE4 SHL PUSH1 0x80 DUP3 ADD MSTORE PUSH1 0xA0 ADD SWAP1 JUMP JUMPDEST PUSH1 0x40 MLOAD DUP1 SWAP2 SUB SWAP1 LOG3 POP POP POP PUSH2 0xAD1 PUSH1 0x1 PUSH1 0x0 SSTORE JUMP JUMPDEST POP POP POP POP POP POP JUMP JUMPDEST PUSH1 0x0 DUP1 JUMPDEST PUSH1 0x2 SLOAD DUP2 LT ISZERO PUSH2 0xB79 JUMPI PUSH1 0x2 DUP2 DUP2 SLOAD DUP2 LT PUSH2 0xAFA JUMPI PUSH2 0xAFA PUSH2 0x14AF JUMP JUMPDEST SWAP1 PUSH1 0x0 MSTORE PUSH1 0x20 PUSH1 0x0 KECCAK256 SWAP1 PUSH1 0x3 MUL ADD PUSH1 0x0 ADD SLOAD DUP4 LT ISZERO DUP1 ISZERO PUSH2 0xB3F JUMPI POP PUSH1 0x2 DUP2 DUP2 SLOAD DUP2 LT PUSH2 0xB29 JUMPI PUSH2 0xB29 PUSH2 0x14AF JUMP JUMPDEST SWAP1 PUSH1 0x0 MSTORE PUSH1 0x20 PUSH1 0x0 KECCAK256 SWAP1 PUSH1 0x3 MUL ADD PUSH1 0x1 ADD SLOAD DUP4 GT ISZERO JUMPDEST ISZERO PUSH2 0xB71 JUMPI PUSH1 0x2 DUP2 DUP2 SLOAD DUP2 LT PUSH2 0xB57 JUMPI PUSH2 0xB57 PUSH2 0x14AF JUMP JUMPDEST SWAP1 PUSH1 0x0 MSTORE PUSH1 0x20 PUSH1 0x0 KECCAK256 SWAP1 PUSH1 0x3 MUL ADD PUSH1 0x2 ADD SLOAD SWAP2 POP POP SWAP2 SWAP1 POP JUMP JUMPDEST PUSH1 0x1 ADD PUSH2 0xADD JUMP JUMPDEST POP PUSH1 0x14 SWAP3 SWAP2 POP POP JUMP JUMPDEST PUSH1 0x0 DUP1 PUSH2 0xB8F DUP5 DUP5 PUSH2 0x555 JUMP JUMPDEST SWAP1 POP PUSH2 0xB9B DUP2 DUP5 PUSH2 0x1489 JUMP JUMPDEST SWAP5 SWAP4 POP POP POP POP JUMP JUMPDEST PUSH2 0xBAB PUSH2 0x114D JUMP JUMPDEST PUSH2 0xBB3 PUSH2 0x1177 JUMP JUMPDEST PUSH1 0x1 PUSH1 0x1 PUSH1 0xA0 SHL SUB DUP5 AND PUSH1 0x0 SWAP1 DUP2 MSTORE PUSH1 0x4 PUSH1 0x20 MSTORE PUSH1 0x40 SWAP1 KECCAK256 SLOAD PUSH1 0xFF AND PUSH2 0xC11 JUMPI PUSH1 0x40 MLOAD PUSH3 0x461BCD PUSH1 0xE5 SHL DUP2 MSTORE PUSH1 0x20 PUSH1 0x4 DUP3 ADD MSTORE PUSH1 0x13 PUSH1 0x24 DUP3 ADD MSTORE PUSH19 0x151BDAD95B881B9BDD081CDD5C1C1BDC9D1959 PUSH1 0x6A SHL PUSH1 0x44 DUP3 ADD MSTORE PUSH1 0x64 ADD PUSH2 0x48D JUMP JUMPDEST PUSH1 0x1 PUSH1 0x1 PUSH1 0xA0 SHL SUB DUP4 AND PUSH2 0xC5B JUMPI PUSH1 0x40 MLOAD PUSH3 0x461BCD PUSH1 0xE5 SHL DUP2 MSTORE PUSH1 0x20 PUSH1 0x4 DUP3 ADD MSTORE PUSH1 0x11 PUSH1 0x24 DUP3 ADD MSTORE PUSH17 0x125B9D985B1A59081C9958DA5C1A595B9D PUSH1 0x7A SHL PUSH1 0x44 DUP3 ADD MSTORE PUSH1 0x64 ADD PUSH2 0x48D JUMP JUMPDEST PUSH1 0x0 DUP3 GT PUSH2 0xCAB JUMPI PUSH1 0x40 MLOAD PUSH3 0x461BCD PUSH1 0xE5 SHL DUP2 MSTORE PUSH1 0x20 PUSH1 0x4 DUP3 ADD MSTORE PUSH1 0x1D PUSH1 0x24 DUP3 ADD MSTORE PUSH32 0x416D6F756E74206D7573742062652067726561746572207468616E2030000000 PUSH1 0x44 DUP3 ADD MSTORE PUSH1 0x64 ADD PUSH2 0x48D JUMP JUMPDEST DUP4 PUSH1 0x0 PUSH2 0xCB8 DUP3 DUP6 PUSH2 0x555 JUMP JUMPDEST SWAP1 POP PUSH1 0x0 PUSH2 0xCC6 DUP3 DUP7 PUSH2 0x1489 JUMP JUMPDEST PUSH1 0x40 MLOAD PUSH4 0x23B872DD PUSH1 0xE0 SHL DUP2 MSTORE CALLER PUSH1 0x4 DUP3 ADD MSTORE ADDRESS PUSH1 0x24 DUP3 ADD MSTORE PUSH1 0x44 DUP2 ADD DUP8 SWAP1 MSTORE SWAP1 SWAP2 POP PUSH1 0x1 PUSH1 0x1 PUSH1 0xA0 SHL SUB DUP5 AND SWAP1 PUSH4 0x23B872DD SWAP1 PUSH1 0x64 ADD PUSH1 0x20 PUSH1 0x40 MLOAD DUP1 DUP4 SUB DUP2 PUSH1 0x0 DUP8 GAS CALL ISZERO DUP1 ISZERO PUSH2 0xD1C JUMPI RETURNDATASIZE PUSH1 0x0 DUP1 RETURNDATACOPY RETURNDATASIZE PUSH1 0x0 REVERT JUMPDEST POP POP POP POP PUSH1 0x40 MLOAD RETURNDATASIZE PUSH1 0x1F NOT PUSH1 0x1F DUP3 ADD AND DUP3 ADD DUP1 PUSH1 0x40 MSTORE POP DUP2 ADD SWAP1 PUSH2 0xD40 SWAP2 SWAP1 PUSH2 0x1467 JUMP JUMPDEST PUSH2 0xD7E JUMPI PUSH1 0x40 MLOAD PUSH3 0x461BCD PUSH1 0xE5 SHL DUP2 MSTORE PUSH1 0x20 PUSH1 0x4 DUP3 ADD MSTORE PUSH1 0xF PUSH1 0x24 DUP3 ADD MSTORE PUSH15 0x151C985B9CD9995C8819985A5B1959 PUSH1 0x8A SHL PUSH1 0x44 DUP3 ADD MSTORE PUSH1 0x64 ADD PUSH2 0x48D JUMP JUMPDEST PUSH1 0x40 MLOAD PUSH4 0xA9059CBB PUSH1 0xE0 SHL DUP2 MSTORE PUSH1 0x1 PUSH1 0x1 PUSH1 0xA0 SHL SUB DUP8 DUP2 AND PUSH1 0x4 DUP4 ADD MSTORE PUSH1 0x24 DUP3 ADD DUP4 SWAP1 MSTORE DUP5 AND SWAP1 PUSH4 0xA9059CBB SWAP1 PUSH1 0x44 ADD PUSH1 0x20 PUSH1 0x40 MLOAD DUP1 DUP4 SUB DUP2 PUSH1 0x0 DUP8 GAS CALL ISZERO DUP1 ISZERO PUSH2 0xDCD JUMPI RETURNDATASIZE PUSH1 0x0 DUP1 RETURNDATACOPY RETURNDATASIZE PUSH1 0x0 REVERT JUMPDEST POP POP POP POP PUSH1 0x40 MLOAD RETURNDATASIZE PUSH1 0x1F NOT PUSH1 0x1F DUP3 ADD AND DUP3 ADD DUP1 PUSH1 0x40 MSTORE POP DUP2 ADD SWAP1 PUSH2 0xDF1 SWAP2 SWAP1 PUSH2 0x1467 JUMP JUMPDEST PUSH2 0xE3D JUMPI PUSH1 0x40 MLOAD PUSH3 0x461BCD PUSH1 0xE5 SHL DUP2 MSTORE PUSH1 0x20 PUSH1 0x4 DUP3 ADD MSTORE PUSH1 0x19 PUSH1 0x24 DUP3 ADD MSTORE PUSH32 0x526563697069656E74207472616E73666572206661696C656400000000000000 PUSH1 0x44 DUP3 ADD MSTORE PUSH1 0x64 ADD PUSH2 0x48D JUMP JUMPDEST PUSH1 0x40 MLOAD PUSH4 0xA9059CBB PUSH1 0xE0 SHL DUP2 MSTORE PUSH20 0x37EB04AD9DDFF984F44CE5941D14B8EA3781459 PUSH1 0x4 DUP3 ADD MSTORE PUSH1 0x24 DUP2 ADD DUP4 SWAP1 MSTORE PUSH1 0x1 PUSH1 0x1 PUSH1 0xA0 SHL SUB DUP5 AND SWAP1 PUSH4 0xA9059CBB SWAP1 PUSH1 0x44 ADD PUSH1 0x20 PUSH1 0x40 MLOAD DUP1 DUP4 SUB DUP2 PUSH1 0x0 DUP8 GAS CALL ISZERO DUP1 ISZERO PUSH2 0xE9E JUMPI RETURNDATASIZE PUSH1 0x0 DUP1 RETURNDATACOPY RETURNDATASIZE PUSH1 0x0 REVERT JUMPDEST POP POP POP POP PUSH1 0x40 MLOAD RETURNDATASIZE PUSH1 0x1F NOT PUSH1 0x1F DUP3 ADD AND DUP3 ADD DUP1 PUSH1 0x40 MSTORE POP DUP2 ADD SWAP1 PUSH2 0xEC2 SWAP2 SWAP1 PUSH2 0x1467 JUMP JUMPDEST PUSH2 0xF04 JUMPI PUSH1 0x40 MLOAD PUSH3 0x461BCD PUSH1 0xE5 SHL DUP2 MSTORE PUSH1 0x20 PUSH1 0x4 DUP3 ADD MSTORE PUSH1 0x13 PUSH1 0x24 DUP3 ADD MSTORE PUSH19 0x119959481D1C985B9CD9995C8819985A5B1959 PUSH1 0x6A SHL PUSH1 0x44 DUP3 ADD MSTORE PUSH1 0x64 ADD PUSH2 0x48D JUMP JUMPDEST PUSH1 0x1 PUSH1 0x1 PUSH1 0xA0 SHL SUB DUP8 AND PUSH1 0x0 SWAP1 DUP2 MSTORE PUSH1 0x5 PUSH1 0x20 MSTORE PUSH1 0x40 DUP2 KECCAK256 DUP1 SLOAD DUP5 SWAP3 SWAP1 PUSH2 0xF2C SWAP1 DUP5 SWAP1 PUSH2 0x149C JUMP JUMPDEST SWAP1 SWAP2 SSTORE POP POP CALLER PUSH1 0x0 SWAP1 DUP2 MSTORE PUSH1 0x6 PUSH1 0x20 SWAP1 DUP2 MSTORE PUSH1 0x40 DUP1 DUP4 KECCAK256 PUSH1 0x1 PUSH1 0x1 PUSH1 0xA0 SHL SUB DUP12 AND DUP5 MSTORE SWAP1 SWAP2 MSTORE DUP2 KECCAK256 DUP1 SLOAD DUP5 SWAP3 SWAP1 PUSH2 0xF64 SWAP1 DUP5 SWAP1 PUSH2 0x149C JUMP JUMPDEST SWAP1 SWAP2 SSTORE POP POP PUSH1 0x40 MLOAD PUSH1 0x1 PUSH1 0x1 PUSH1 0xA0 SHL SUB DUP9 AND SWAP1 CALLER SWAP1 PUSH32 0xFF7AE9E595F6A1D98A91D89005947348CAE8741387FAC7B9DC472993F8729456 SWAP1 PUSH2 0xFAA SWAP1 DUP10 SWAP1 DUP8 SWAP1 DUP11 SWAP1 PUSH2 0x14C5 JUMP JUMPDEST PUSH1 0x40 MLOAD DUP1 SWAP2 SUB SWAP1 LOG3 POP POP POP PUSH2 0xFBF PUSH1 0x1 PUSH1 0x0 SSTORE JUMP JUMPDEST POP POP POP POP JUMP JUMPDEST PUSH2 0xFCD PUSH2 0x1003 JUMP JUMPDEST PUSH1 0x1 PUSH1 0x1 PUSH1 0xA0 SHL SUB DUP2 AND PUSH2 0xFF7 JUMPI PUSH1 0x40 MLOAD PUSH4 0x1E4FBDF7 PUSH1 0xE0 SHL DUP2 MSTORE PUSH1 0x0 PUSH1 0x4 DUP3 ADD MSTORE PUSH1 0x24 ADD PUSH2 0x48D JUMP JUMPDEST PUSH2 0x1000 DUP2 PUSH2 0x1085 JUMP JUMPDEST POP JUMP JUMPDEST PUSH1 0x1 SLOAD PUSH1 0x1 PUSH1 0x1 PUSH1 0xA0 SHL SUB AND CALLER EQ PUSH2 0x40C JUMPI PUSH1 0x40 MLOAD PUSH4 0x118CDAA7 PUSH1 0xE0 SHL DUP2 MSTORE CALLER PUSH1 0x4 DUP3 ADD MSTORE PUSH1 0x24 ADD PUSH2 0x48D JUMP JUMPDEST PUSH2 0x1038 PUSH2 0x11A2 JUMP JUMPDEST PUSH1 0x1 DUP1 SLOAD PUSH1 0xFF PUSH1 0xA0 SHL NOT AND SWAP1 SSTORE PUSH32 0x5DB9EE0A495BF2E6FF9C91A7834C1BA4FDD244A5E8AA4E537BD38AEAE4B073AA CALLER JUMPDEST PUSH1 0x40 MLOAD PUSH1 0x1 PUSH1 0x1 PUSH1 0xA0 SHL SUB SWAP1 SWAP2 AND DUP2 MSTORE PUSH1 0x20 ADD PUSH1 0x40 MLOAD DUP1 SWAP2 SUB SWAP1 LOG1 JUMP JUMPDEST PUSH1 0x1 DUP1 SLOAD PUSH1 0x1 PUSH1 0x1 PUSH1 0xA0 SHL SUB DUP4 DUP2 AND PUSH1 0x1 PUSH1 0x1 PUSH1 0xA0 SHL SUB NOT DUP4 AND DUP2 OR SWAP1 SWAP4 SSTORE PUSH1 0x40 MLOAD SWAP2 AND SWAP2 SWAP1 DUP3 SWAP1 PUSH32 0x8BE0079C531659141344CD1FD0A4F28419497F9722A3DAAFE3B4186F6B6457E0 SWAP1 PUSH1 0x0 SWAP1 LOG3 POP POP JUMP JUMPDEST PUSH2 0x10DF PUSH2 0x1177 JUMP JUMPDEST PUSH1 0x1 DUP1 SLOAD PUSH1 0xFF PUSH1 0xA0 SHL NOT AND PUSH1 0x1 PUSH1 0xA0 SHL OR SWAP1 SSTORE PUSH32 0x62E78CEA01BEE320CD4E420270B5EA74000D11B0C9F74754EBDBFC544B05A258 PUSH2 0x1068 CALLER SWAP1 JUMP JUMPDEST PUSH1 0x0 PUSH1 0x1 PUSH1 0x1 PUSH1 0xA0 SHL SUB DUP4 AND PUSH20 0x833589FCD6EDB6E08F4C7C32D4F71B54BDA02913 SUB PUSH2 0x1147 JUMPI POP DUP1 PUSH2 0x435 JUMP JUMPDEST POP SWAP2 SWAP1 POP JUMP JUMPDEST PUSH1 0x2 PUSH1 0x0 SLOAD SUB PUSH2 0x1170 JUMPI PUSH1 0x40 MLOAD PUSH4 0x3EE5AEB5 PUSH1 0xE0 SHL DUP2 MSTORE PUSH1 0x4 ADD PUSH1 0x40 MLOAD DUP1 SWAP2 SUB SWAP1 REVERT JUMPDEST PUSH1 0x2 PUSH1 0x0 SSTORE JUMP JUMPDEST PUSH1 0x1 SLOAD PUSH1 0x1 PUSH1 0xA0 SHL SWAP1 DIV PUSH1 0xFF AND ISZERO PUSH2 0x40C JUMPI PUSH1 0x40 MLOAD PUSH4 0xD93C0665 PUSH1 0xE0 SHL DUP2 MSTORE PUSH1 0x4 ADD PUSH1 0x40 MLOAD DUP1 SWAP2 SUB SWAP1 REVERT JUMPDEST PUSH1 0x1 SLOAD PUSH1 0x1 PUSH1 0xA0 SHL SWAP1 DIV PUSH1 0xFF AND PUSH2 0x40C JUMPI PUSH1 0x40 MLOAD PUSH4 0x8DFC202B PUSH1 0xE0 SHL DUP2 MSTORE PUSH1 0x4 ADD PUSH1 0x40 MLOAD DUP1 SWAP2 SUB SWAP1 REVERT JUMPDEST DUP1 CALLDATALOAD PUSH1 0x1 PUSH1 0x1 PUSH1 0xA0 SHL SUB DUP2 AND DUP2 EQ PUSH2 0x11E3 JUMPI PUSH1 0x0 DUP1 REVERT JUMPDEST SWAP2 SWAP1 POP JUMP JUMPDEST PUSH1 0x0 PUSH1 0x20 DUP3 DUP5 SUB SLT ISZERO PUSH2 0x11FA JUMPI PUSH1 0x0 DUP1 REVERT JUMPDEST PUSH2 0x1203 DUP3 PUSH2 0x11CC JUMP JUMPDEST SWAP4 SWAP3 POP POP POP JUMP JUMPDEST PUSH1 0x0 PUSH1 0x20 DUP3 DUP5 SUB SLT ISZERO PUSH2 0x121C JUMPI PUSH1 0x0 DUP1 REVERT JUMPDEST POP CALLDATALOAD SWAP2 SWAP1 POP JUMP JUMPDEST PUSH1 0x0 DUP1 PUSH1 0x40 DUP4 DUP6 SUB SLT ISZERO PUSH2 0x1236 JUMPI PUSH1 0x0 DUP1 REVERT JUMPDEST PUSH2 0x123F DUP4 PUSH2 0x11CC JUMP JUMPDEST SWAP2 POP PUSH2 0x124D PUSH1 0x20 DUP5 ADD PUSH2 0x11CC JUMP JUMPDEST SWAP1 POP SWAP3 POP SWAP3 SWAP1 POP JUMP JUMPDEST PUSH1 0x0 DUP1 PUSH1 0x40 DUP4 DUP6 SUB SLT ISZERO PUSH2 0x1269 JUMPI PUSH1 0x0 DUP1 REVERT JUMPDEST PUSH2 0x1272 DUP4 PUSH2 0x11CC JUMP JUMPDEST SWAP5 PUSH1 0x20 SWAP4 SWAP1 SWAP4 ADD CALLDATALOAD SWAP4 POP POP POP JUMP JUMPDEST PUSH1 0x0 DUP1 PUSH1 0x0 DUP1 PUSH1 0x0 DUP1 PUSH1 0xA0 DUP8 DUP10 SUB SLT ISZERO PUSH2 0x1299 JUMPI PUSH1 0x0 DUP1 REVERT JUMPDEST PUSH2 0x12A2 DUP8 PUSH2 0x11CC JUMP JUMPDEST SWAP6 POP PUSH2 0x12B0 PUSH1 0x20 DUP9 ADD PUSH2 0x11CC JUMP JUMPDEST SWAP5 POP PUSH1 0x40 DUP8 ADD CALLDATALOAD SWAP4 POP PUSH1 0x60 DUP8 ADD CALLDATALOAD SWAP3 POP PUSH1 0x80 DUP8 ADD CALLDATALOAD PUSH8 0xFFFFFFFFFFFFFFFF DUP1 DUP3 GT ISZERO PUSH2 0x12DB JUMPI PUSH1 0x0 DUP1 REVERT JUMPDEST DUP2 DUP10 ADD SWAP2 POP DUP10 PUSH1 0x1F DUP4 ADD SLT PUSH2 0x12EF JUMPI PUSH1 0x0 DUP1 REVERT JUMPDEST DUP2 CALLDATALOAD DUP2 DUP2 GT ISZERO PUSH2 0x12FE JUMPI PUSH1 0x0 DUP1 REVERT JUMPDEST DUP11 PUSH1 0x20 DUP3 DUP6 ADD ADD GT ISZERO PUSH2 0x1310 JUMPI PUSH1 0x0 DUP1 REVERT JUMPDEST PUSH1 0x20 DUP4 ADD SWAP5 POP DUP1 SWAP4 POP POP POP POP SWAP3 SWAP6 POP SWAP3 SWAP6 POP SWAP3 SWAP6 JUMP JUMPDEST PUSH4 0x4E487B71 PUSH1 0xE0 SHL PUSH1 0x0 MSTORE PUSH1 0x41 PUSH1 0x4 MSTORE PUSH1 0x24 PUSH1 0x0 REVERT JUMPDEST PUSH1 0x0 DUP1 PUSH1 0x0 DUP1 PUSH1 0x80 DUP6 DUP8 SUB SLT ISZERO PUSH2 0x1352 JUMPI PUSH1 0x0 DUP1 REVERT JUMPDEST PUSH2 0x135B DUP6 PUSH2 0x11CC JUMP JUMPDEST SWAP4 POP PUSH2 0x1369 PUSH1 0x20 DUP7 ADD PUSH2 0x11CC JUMP JUMPDEST SWAP3 POP PUSH1 0x40 DUP6 ADD CALLDATALOAD SWAP2 POP PUSH1 0x60 DUP6 ADD CALLDATALOAD PUSH8 0xFFFFFFFFFFFFFFFF DUP1 DUP3 GT ISZERO PUSH2 0x138D JUMPI PUSH1 0x0 DUP1 REVERT JUMPDEST DUP2 DUP8 ADD SWAP2 POP DUP8 PUSH1 0x1F DUP4 ADD SLT PUSH2 0x13A1 JUMPI PUSH1 0x0 DUP1 REVERT JUMPDEST DUP2 CALLDATALOAD DUP2 DUP2 GT ISZERO PUSH2 0x13B3 JUMPI PUSH2 0x13B3 PUSH2 0x1326 JUMP JUMPDEST PUSH1 0x40 MLOAD PUSH1 0x1F DUP3 ADD PUSH1 0x1F NOT SWAP1 DUP2 AND PUSH1 0x3F ADD AND DUP2 ADD SWAP1 DUP4 DUP3 GT DUP2 DUP4 LT OR ISZERO PUSH2 0x13DB JUMPI PUSH2 0x13DB PUSH2 0x1326 JUMP JUMPDEST DUP2 PUSH1 0x40 MSTORE DUP3 DUP2 MSTORE DUP11 PUSH1 0x20 DUP5 DUP8 ADD ADD GT ISZERO PUSH2 0x13F4 JUMPI PUSH1 0x0 DUP1 REVERT JUMPDEST DUP3 PUSH1 0x20 DUP7 ADD PUSH1 0x20 DUP4 ADD CALLDATACOPY PUSH1 0x0 PUSH1 0x20 DUP5 DUP4 ADD ADD MSTORE DUP1 SWAP6 POP POP POP POP POP POP SWAP3 SWAP6 SWAP2 SWAP5 POP SWAP3 POP JUMP JUMPDEST PUSH4 0x4E487B71 PUSH1 0xE0 SHL PUSH1 0x0 MSTORE PUSH1 0x11 PUSH1 0x4 MSTORE PUSH1 0x24 PUSH1 0x0 REVERT JUMPDEST DUP1 DUP3 MUL DUP2 ISZERO DUP3 DUP3 DIV DUP5 EQ OR PUSH2 0x435 JUMPI PUSH2 0x435 PUSH2 0x1418 JUMP JUMPDEST PUSH1 0x0 DUP3 PUSH2 0x1462 JUMPI PUSH4 0x4E487B71 PUSH1 0xE0 SHL PUSH1 0x0 MSTORE PUSH1 0x12 PUSH1 0x4 MSTORE PUSH1 0x24 PUSH1 0x0 REVERT JUMPDEST POP DIV SWAP1 JUMP JUMPDEST PUSH1 0x0 PUSH1 0x20 DUP3 DUP5 SUB SLT ISZERO PUSH2 0x1479 JUMPI PUSH1 0x0 DUP1 REVERT JUMPDEST DUP2 MLOAD DUP1 ISZERO ISZERO DUP2 EQ PUSH2 0x1203 JUMPI PUSH1 0x0 DUP1 REVERT JUMPDEST DUP2 DUP2 SUB DUP2 DUP2 GT ISZERO PUSH2 0x435 JUMPI PUSH2 0x435 PUSH2 0x1418 JUMP JUMPDEST DUP1 DUP3 ADD DUP1 DUP3 GT ISZERO PUSH2 0x435 JUMPI PUSH2 0x435 PUSH2 0x1418 JUMP JUMPDEST PUSH4 0x4E487B71 PUSH1 0xE0 SHL PUSH1 0x0 MSTORE PUSH1 0x32 PUSH1 0x4 MSTORE PUSH1 0x24 PUSH1 0x0 REVERT JUMPDEST DUP4 DUP2 MSTORE PUSH1 0x0 PUSH1 0x20 DUP5 PUSH1 0x20 DUP5 ADD MSTORE PUSH1 0x60 PUSH1 0x40 DUP5 ADD MSTORE DUP4 MLOAD DUP1 PUSH1 0x60 DUP6 ADD MSTORE PUSH1 0x0 JUMPDEST DUP2 DUP2 LT ISZERO PUSH2 0x1500 JUMPI DUP6 DUP2 ADD DUP4 ADD MLOAD DUP6 DUP3 ADD PUSH1 0x80 ADD MSTORE DUP3 ADD PUSH2 0x14E4 JUMP JUMPDEST POP PUSH1 0x0 PUSH1 0x80 DUP3 DUP7 ADD ADD MSTORE PUSH1 0x80 PUSH1 0x1F NOT PUSH1 0x1F DUP4 ADD AND DUP6 ADD ADD SWAP3 POP POP POP SWAP5 SWAP4 POP POP POP POP JUMP INVALID LOG2 PUSH5 0x6970667358 0x22 SLT KECCAK256 NUMBER 0xD6 0xDC EXTCODEHASH DUP8 0xB6 0x5C PREVRANDAO PUSH26 0xA051E9751718FFE4921FCBBBCDB8D53000EB86337468E264736F PUSH13 0x63430008160033000000000000 "},"methodIdentifiers":{"BASIS_POINTS()":"e1f1c4a7","FEE_RECIPIENT()":"ebd09054","addSupportedToken(address)":"6d69fcaf","calculateDynamicFeeRate(uint256)":"b6304c56","calculateFee(address,uint256)":"8b28ab1e","emergencyWithdraw(address,uint256)":"95ccea67","feeTiers(uint256)":"230ed44a","getNetAmount(address,uint256)":"b8e9d3c1","getTotalFeesCollected(address)":"07ad24d6","getUserFeeContribution(address,address)":"5e729f5d","isTokenSupported(address)":"75151b63","owner()":"8da5cb5b","pause()":"8456cb59","paused()":"5c975abb","priceFeeds(address)":"9dcb511a","processPayment(address,address,uint256,string)":"bbe96b00","processSwapWithFee(address,address,uint256,uint256,bytes)":"b43623f3","removeSupportedToken(address)":"76319190","renounceOwnership()":"715018a6","supportedTokens(address)":"68c4ac26","totalFeesCollected(address)":"88a40eed","transferOwnership(address)":"f2fde38b","unpause()":"3f4ba83a","userFeesContributed(address,address)":"3bd54d0d"}},"storageLayout":{"storage":[{"astId":1971,"contract":"contracts/NedaPayProtocol.sol:NedaPayProtocol","label":"_status","offset":0,"slot":"0","type":"t_uint256"},{"astId":988,"contract":"contracts/NedaPayProtocol.sol:NedaPayProtocol","label":"_owner","offset":0,"slot":"1","type":"t_address"},{"astId":1861,"contract":"contracts/NedaPayProtocol.sol:NedaPayProtocol","label":"_paused","offset":20,"slot":"1","type":"t_bool"},{"astId":2183,"contract":"contracts/NedaPayProtocol.sol:NedaPayProtocol","label":"feeTiers","offset":0,"slot":"2","type":"t_array(t_struct(FeeTier)2179_storage)dyn_storage"},{"astId":2187,"contract":"contracts/NedaPayProtocol.sol:NedaPayProtocol","label":"priceFeeds","offset":0,"slot":"3","type":"t_mapping(t_address,t_address)"},{"astId":2191,"contract":"contracts/NedaPayProtocol.sol:NedaPayProtocol","label":"supportedTokens","offset":0,"slot":"4","type":"t_mapping(t_address,t_bool)"},{"astId":2195,"contract":"contracts/NedaPayProtocol.sol:NedaPayProtocol","label":"totalFeesCollected","offset":0,"slot":"5","type":"t_mapping(t_address,t_uint256)"},{"astId":2201,"contract":"contracts/NedaPayProtocol.sol:NedaPayProtocol","label":"userFeesContributed","offset":0,"slot":"6","type":"t_mapping(t_address,t_mapping(t_address,t_uint256))"}],"types":{"t_address":{"encoding":"inplace","label":"address","numberOfBytes":"20"},"t_array(t_struct(FeeTier)2179_storage)dyn_storage":{"base":"t_struct(FeeTier)2179_storage","encoding":"dynamic_array","label":"struct NedaPayProtocol.FeeTier[]","numberOfBytes":"32"},"t_bool":{"encoding":"inplace","label":"bool","numberOfBytes":"1"},"t_mapping(t_address,t_address)":{"encoding":"mapping","key":"t_address","label":"mapping(address => address)","numberOfBytes":"32","value":"t_address"},"t_mapping(t_address,t_bool)":{"encoding":"mapping","key":"t_address","label":"mapping(address => bool)","numberOfBytes":"32","value":"t_bool"},"t_mapping(t_address,t_mapping(t_address,t_uint256))":{"encoding":"mapping","key":"t_address","label":"mapping(address => mapping(address => uint256))","numberOfBytes":"32","value":"t_mapping(t_address,t_uint256)"},"t_mapping(t_address,t_uint256)":{"encoding":"mapping","key":"t_address","label":"mapping(address => uint256)","numberOfBytes":"32","value":"t_uint256"},"t_struct(FeeTier)2179_storage":{"encoding":"inplace","label":"struct NedaPayProtocol.FeeTier","members":[{"astId":2174,"contract":"contracts/NedaPayProtocol.sol:NedaPayProtocol","label":"minAmount","offset":0,"slot":"0","type":"t_uint256"},{"astId":2176,"contract":"contracts/NedaPayProtocol.sol:NedaPayProtocol","label":"maxAmount","offset":0,"slot":"1","type":"t_uint256"},{"astId":2178,"contract":"contracts/NedaPayProtocol.sol:NedaPayProtocol","label":"feeRate","offset":0,"slot":"2","type":"t_uint256"}],"numberOfBytes":"96"},"t_uint256":{"encoding":"inplace","label":"uint256","numberOfBytes":"32"}}}}}}