{
  "_format": "hh-sol-artifact-1",
  "contractName": "NedaPayProtocolUpgradeable",
  "sourceName": "contracts/NedaPayProtocolUpgradeable.sol",
  "abi": [
    {
      "inputs": [],
      "stateMutability": "nonpayable",
      "type": "constructor"
    },
    {
      "inputs": [
        {
          "internalType": "address",
          "name": "target",
          "type": "address"
        }
      ],
      "name": "AddressEmptyCode",
      "type": "error"
    },
    {
      "inputs": [
        {
          "internalType": "address",
          "name": "implementation",
          "type": "address"
        }
      ],
      "name": "ERC1967InvalidImplementation",
      "type": "error"
    },
    {
      "inputs": [],
      "name": "ERC1967NonPayable",
      "type": "error"
    },
    {
      "inputs": [],
      "name": "EnforcedPause",
      "type": "error"
    },
    {
      "inputs": [],
      "name": "ExpectedPause",
      "type": "error"
    },
    {
      "inputs": [],
      "name": "FailedCall",
      "type": "error"
    },
    {
      "inputs": [],
      "name": "InvalidInitialization",
      "type": "error"
    },
    {
      "inputs": [],
      "name": "NotInitializing",
      "type": "error"
    },
    {
      "inputs": [
        {
          "internalType": "address",
          "name": "owner",
          "type": "address"
        }
      ],
      "name": "OwnableInvalidOwner",
      "type": "error"
    },
    {
      "inputs": [
        {
          "internalType": "address",
          "name": "account",
          "type": "address"
        }
      ],
      "name": "OwnableUnauthorizedAccount",
      "type": "error"
    },
    {
      "inputs": [],
      "name": "ReentrancyGuardReentrantCall",
      "type": "error"
    },
    {
      "inputs": [],
      "name": "UUPSUnauthorizedCallContext",
      "type": "error"
    },
    {
      "inputs": [
        {
          "internalType": "bytes32",
          "name": "slot",
          "type": "bytes32"
        }
      ],
      "name": "UUPSUnsupportedProxiableUUID",
      "type": "error"
    },
    {
      "anonymous": false,
      "inputs": [],
      "name": "FeeTiersUpdated",
      "type": "event"
    },
    {
      "anonymous": false,
      "inputs": [
        {
          "indexed": true,
          "internalType": "address",
          "name": "token",
          "type": "address"
        },
        {
          "indexed": false,
          "internalType": "uint256",
          "name": "amount",
          "type": "uint256"
        }
      ],
      "name": "FeesWithdrawn",
      "type": "event"
    },
    {
      "anonymous": false,
      "inputs": [
        {
          "indexed": false,
          "internalType": "uint64",
          "name": "version",
          "type": "uint64"
        }
      ],
      "name": "Initialized",
      "type": "event"
    },
    {
      "anonymous": false,
      "inputs": [
        {
          "indexed": true,
          "internalType": "address",
          "name": "previousOwner",
          "type": "address"
        },
        {
          "indexed": true,
          "internalType": "address",
          "name": "newOwner",
          "type": "address"
        }
      ],
      "name": "OwnershipTransferred",
      "type": "event"
    },
    {
      "anonymous": false,
      "inputs": [
        {
          "indexed": false,
          "internalType": "address",
          "name": "account",
          "type": "address"
        }
      ],
      "name": "Paused",
      "type": "event"
    },
    {
      "anonymous": false,
      "inputs": [
        {
          "indexed": true,
          "internalType": "address",
          "name": "user",
          "type": "address"
        },
        {
          "indexed": true,
          "internalType": "address",
          "name": "token",
          "type": "address"
        },
        {
          "indexed": false,
          "internalType": "uint256",
          "name": "amount",
          "type": "uint256"
        },
        {
          "indexed": false,
          "internalType": "uint256",
          "name": "fee",
          "type": "uint256"
        },
        {
          "indexed": false,
          "internalType": "string",
          "name": "paymentType",
          "type": "string"
        }
      ],
      "name": "PaymentProcessed",
      "type": "event"
    },
    {
      "anonymous": false,
      "inputs": [
        {
          "indexed": true,
          "internalType": "address",
          "name": "user",
          "type": "address"
        },
        {
          "indexed": true,
          "internalType": "address",
          "name": "tokenIn",
          "type": "address"
        },
        {
          "indexed": true,
          "internalType": "address",
          "name": "tokenOut",
          "type": "address"
        },
        {
          "indexed": false,
          "internalType": "uint256",
          "name": "amountIn",
          "type": "uint256"
        },
        {
          "indexed": false,
          "internalType": "uint256",
          "name": "fee",
          "type": "uint256"
        }
      ],
      "name": "SwapProcessed",
      "type": "event"
    },
    {
      "anonymous": false,
      "inputs": [
        {
          "indexed": true,
          "internalType": "address",
          "name": "token",
          "type": "address"
        }
      ],
      "name": "TokenAdded",
      "type": "event"
    },
    {
      "anonymous": false,
      "inputs": [
        {
          "indexed": true,
          "internalType": "address",
          "name": "token",
          "type": "address"
        }
      ],
      "name": "TokenRemoved",
      "type": "event"
    },
    {
      "anonymous": false,
      "inputs": [
        {
          "indexed": false,
          "internalType": "address",
          "name": "account",
          "type": "address"
        }
      ],
      "name": "Unpaused",
      "type": "event"
    },
    {
      "anonymous": false,
      "inputs": [
        {
          "indexed": true,
          "internalType": "address",
          "name": "implementation",
          "type": "address"
        }
      ],
      "name": "Upgraded",
      "type": "event"
    },
    {
      "inputs": [],
      "name": "BASIS_POINTS",
      "outputs": [
        {
          "internalType": "uint256",
          "name": "",
          "type": "uint256"
        }
      ],
      "stateMutability": "view",
      "type": "function"
    },
    {
      "inputs": [],
      "name": "FEE_RECIPIENT",
      "outputs": [
        {
          "internalType": "address",
          "name": "",
          "type": "address"
        }
      ],
      "stateMutability": "view",
      "type": "function"
    },
    {
      "inputs": [],
      "name": "UPGRADE_INTERFACE_VERSION",
      "outputs": [
        {
          "internalType": "string",
          "name": "",
          "type": "string"
        }
      ],
      "stateMutability": "view",
      "type": "function"
    },
    {
      "inputs": [
        {
          "internalType": "address",
          "name": "token",
          "type": "address"
        }
      ],
      "name": "addSupportedToken",
      "outputs": [],
      "stateMutability": "nonpayable",
      "type": "function"
    },
    {
      "inputs": [
        {
          "internalType": "uint256",
          "name": "usdAmount",
          "type": "uint256"
        }
      ],
      "name": "calculateDynamicFeeRate",
      "outputs": [
        {
          "internalType": "uint256",
          "name": "",
          "type": "uint256"
        }
      ],
      "stateMutability": "view",
      "type": "function"
    },
    {
      "inputs": [
        {
          "internalType": "address",
          "name": "token",
          "type": "address"
        },
        {
          "internalType": "uint256",
          "name": "amount",
          "type": "uint256"
        }
      ],
      "name": "calculateFee",
      "outputs": [
        {
          "internalType": "uint256",
          "name": "",
          "type": "uint256"
        }
      ],
      "stateMutability": "view",
      "type": "function"
    },
    {
      "inputs": [
        {
          "internalType": "address",
          "name": "token",
          "type": "address"
        },
        {
          "internalType": "uint256",
          "name": "amount",
          "type": "uint256"
        }
      ],
      "name": "emergencyWithdraw",
      "outputs": [],
      "stateMutability": "nonpayable",
      "type": "function"
    },
    {
      "inputs": [
        {
          "internalType": "uint256",
          "name": "",
          "type": "uint256"
        }
      ],
      "name": "feeTiers",
      "outputs": [
        {
          "internalType": "uint256",
          "name": "minAmount",
          "type": "uint256"
        },
        {
          "internalType": "uint256",
          "name": "maxAmount",
          "type": "uint256"
        },
        {
          "internalType": "uint256",
          "name": "feeRate",
          "type": "uint256"
        }
      ],
      "stateMutability": "view",
      "type": "function"
    },
    {
      "inputs": [],
      "name": "getFeeTiersLength",
      "outputs": [
        {
          "internalType": "uint256",
          "name": "",
          "type": "uint256"
        }
      ],
      "stateMutability": "view",
      "type": "function"
    },
    {
      "inputs": [
        {
          "internalType": "address",
          "name": "token",
          "type": "address"
        },
        {
          "internalType": "uint256",
          "name": "amount",
          "type": "uint256"
        }
      ],
      "name": "getNetAmount",
      "outputs": [
        {
          "internalType": "uint256",
          "name": "netAmount",
          "type": "uint256"
        }
      ],
      "stateMutability": "view",
      "type": "function"
    },
    {
      "inputs": [
        {
          "internalType": "address",
          "name": "token",
          "type": "address"
        }
      ],
      "name": "getTotalFeesCollected",
      "outputs": [
        {
          "internalType": "uint256",
          "name": "total",
          "type": "uint256"
        }
      ],
      "stateMutability": "view",
      "type": "function"
    },
    {
      "inputs": [
        {
          "internalType": "address",
          "name": "user",
          "type": "address"
        },
        {
          "internalType": "address",
          "name": "token",
          "type": "address"
        }
      ],
      "name": "getUserFeeContribution",
      "outputs": [
        {
          "internalType": "uint256",
          "name": "contribution",
          "type": "uint256"
        }
      ],
      "stateMutability": "view",
      "type": "function"
    },
    {
      "inputs": [],
      "name": "initialize",
      "outputs": [],
      "stateMutability": "nonpayable",
      "type": "function"
    },
    {
      "inputs": [
        {
          "internalType": "address",
          "name": "token",
          "type": "address"
        }
      ],
      "name": "isTokenSupported",
      "outputs": [
        {
          "internalType": "bool",
          "name": "supported",
          "type": "bool"
        }
      ],
      "stateMutability": "view",
      "type": "function"
    },
    {
      "inputs": [],
      "name": "owner",
      "outputs": [
        {
          "internalType": "address",
          "name": "",
          "type": "address"
        }
      ],
      "stateMutability": "view",
      "type": "function"
    },
    {
      "inputs": [],
      "name": "pause",
      "outputs": [],
      "stateMutability": "nonpayable",
      "type": "function"
    },
    {
      "inputs": [],
      "name": "paused",
      "outputs": [
        {
          "internalType": "bool",
          "name": "",
          "type": "bool"
        }
      ],
      "stateMutability": "view",
      "type": "function"
    },
    {
      "inputs": [
        {
          "internalType": "address",
          "name": "",
          "type": "address"
        }
      ],
      "name": "priceFeeds",
      "outputs": [
        {
          "internalType": "address",
          "name": "",
          "type": "address"
        }
      ],
      "stateMutability": "view",
      "type": "function"
    },
    {
      "inputs": [
        {
          "internalType": "address",
          "name": "token",
          "type": "address"
        },
        {
          "internalType": "address",
          "name": "recipient",
          "type": "address"
        },
        {
          "internalType": "uint256",
          "name": "amount",
          "type": "uint256"
        },
        {
          "internalType": "string",
          "name": "paymentType",
          "type": "string"
        }
      ],
      "name": "processPayment",
      "outputs": [],
      "stateMutability": "nonpayable",
      "type": "function"
    },
    {
      "inputs": [
        {
          "internalType": "address",
          "name": "tokenIn",
          "type": "address"
        },
        {
          "internalType": "address",
          "name": "tokenOut",
          "type": "address"
        },
        {
          "internalType": "uint256",
          "name": "amountIn",
          "type": "uint256"
        },
        {
          "internalType": "uint256",
          "name": "",
          "type": "uint256"
        },
        {
          "internalType": "bytes",
          "name": "",
          "type": "bytes"
        }
      ],
      "name": "processSwap",
      "outputs": [],
      "stateMutability": "nonpayable",
      "type": "function"
    },
    {
      "inputs": [],
      "name": "proxiableUUID",
      "outputs": [
        {
          "internalType": "bytes32",
          "name": "",
          "type": "bytes32"
        }
      ],
      "stateMutability": "view",
      "type": "function"
    },
    {
      "inputs": [
        {
          "internalType": "address",
          "name": "token",
          "type": "address"
        }
      ],
      "name": "removeSupportedToken",
      "outputs": [],
      "stateMutability": "nonpayable",
      "type": "function"
    },
    {
      "inputs": [],
      "name": "renounceOwnership",
      "outputs": [],
      "stateMutability": "nonpayable",
      "type": "function"
    },
    {
      "inputs": [
        {
          "internalType": "address",
          "name": "",
          "type": "address"
        }
      ],
      "name": "supportedTokens",
      "outputs": [
        {
          "internalType": "bool",
          "name": "",
          "type": "bool"
        }
      ],
      "stateMutability": "view",
      "type": "function"
    },
    {
      "inputs": [
        {
          "internalType": "address",
          "name": "",
          "type": "address"
        }
      ],
      "name": "totalFeesCollected",
      "outputs": [
        {
          "internalType": "uint256",
          "name": "",
          "type": "uint256"
        }
      ],
      "stateMutability": "view",
      "type": "function"
    },
    {
      "inputs": [
        {
          "internalType": "address",
          "name": "newOwner",
          "type": "address"
        }
      ],
      "name": "transferOwnership",
      "outputs": [],
      "stateMutability": "nonpayable",
      "type": "function"
    },
    {
      "inputs": [],
      "name": "unpause",
      "outputs": [],
      "stateMutability": "nonpayable",
      "type": "function"
    },
    {
      "inputs": [
        {
          "components": [
            {
              "internalType": "uint256",
              "name": "minAmount",
              "type": "uint256"
            },
            {
              "internalType": "uint256",
              "name": "maxAmount",
              "type": "uint256"
            },
            {
              "internalType": "uint256",
              "name": "feeRate",
              "type": "uint256"
            }
          ],
          "internalType": "struct NedaPayProtocolUpgradeable.FeeTier[]",
          "name": "newTiers",
          "type": "tuple[]"
        }
      ],
      "name": "updateFeeTiers",
      "outputs": [],
      "stateMutability": "nonpayable",
      "type": "function"
    },
    {
      "inputs": [
        {
          "internalType": "address",
          "name": "newImplementation",
          "type": "address"
        },
        {
          "internalType": "bytes",
          "name": "data",
          "type": "bytes"
        }
      ],
      "name": "upgradeToAndCall",
      "outputs": [],
      "stateMutability": "payable",
      "type": "function"
    },
    {
      "inputs": [
        {
          "internalType": "address",
          "name": "",
          "type": "address"
        },
        {
          "internalType": "address",
          "name": "",
          "type": "address"
        }
      ],
      "name": "userFeeContributions",
      "outputs": [
        {
          "internalType": "uint256",
          "name": "",
          "type": "uint256"
        }
      ],
      "stateMutability": "view",
      "type": "function"
    },
    {
      "inputs": [],
      "name": "version",
      "outputs": [
        {
          "internalType": "string",
          "name": "",
          "type": "string"
        }
      ],
      "stateMutability": "pure",
      "type": "function"
    }
  ],
  "bytecode": "0x60a0604052306080523480156200001557600080fd5b506200002062000026565b620000da565b7ff0c57e16840df040f15088dc2f81fe391c3923bec73e23a9662efc9c229c6a00805468010000000000000000900460ff1615620000775760405163f92ee8a960e01b815260040160405180910390fd5b80546001600160401b0390811614620000d75780546001600160401b0319166001600160401b0390811782556040519081527fc7f505b2f371ae2175ee4913f4499e1f2633a7b5936321eed1cdaeb6115181d29060200160405180910390a15b50565b6080516125f76200010460003960008181611909015281816119320152611a7801526125f76000f3fe6080604052600436106101d85760003560e01c80638129fc1c11610102578063ad3cb1cc11610095578063ce61536711610064578063ce615367146105c6578063e1f1c4a7146105fe578063ebd0905414610614578063f2fde38b1461063c57600080fd5b8063ad3cb1cc14610535578063b6304c5614610566578063b8e9d3c114610586578063bbe96b00146105a657600080fd5b80638da5cb5b116100d15780638da5cb5b1461049d57806395ccea67146104ca5780639dcb511a146104ea578063a655808c1461052057600080fd5b80638129fc1c146104265780638456cb591461043b57806388a40eed146104505780638b28ab1e1461047d57600080fd5b80635c975abb1161017a578063715018a611610149578063715018a61461039857806375151b63146103ad57806376319190146103e6578063795eb9271461040657600080fd5b80635c975abb146102f75780635e729f5d1461032857806368c4ac26146103485780636d69fcaf1461037857600080fd5b80633f4ba83a116101b65780633f4ba83a146102835780634f1ef2861461029857806352d1902d146102ab57806354fd4d50146102c057600080fd5b806307ad24d6146101dd578063230ed44a146102265780633ed4193714610261575b600080fd5b3480156101e957600080fd5b506102136101f83660046120e7565b6001600160a01b031660009081526003602052604090205490565b6040519081526020015b60405180910390f35b34801561023257600080fd5b50610246610241366004612102565b61065c565b6040805193845260208401929092529082015260600161021d565b34801561026d57600080fd5b5061028161027c36600461211b565b61068f565b005b34801561028f57600080fd5b506102816107fd565b6102816102a636600461221c565b61080f565b3480156102b757600080fd5b5061021361082e565b3480156102cc57600080fd5b506040805180820190915260058152640312e302e360dc1b60208201525b60405161021d91906122ce565b34801561030357600080fd5b506000805160206125828339815191525460ff165b604051901515815260200161021d565b34801561033457600080fd5b506102136103433660046122e1565b61084b565b34801561035457600080fd5b506103186103633660046120e7565b60026020526000908152604090205460ff1681565b34801561038457600080fd5b506102816103933660046120e7565b610878565b3480156103a457600080fd5b50610281610983565b3480156103b957600080fd5b506103186103c83660046120e7565b6001600160a01b031660009081526002602052604090205460ff1690565b3480156103f257600080fd5b506102816104013660046120e7565b610995565b34801561041257600080fd5b50610281610421366004612314565b610a44565b34801561043257600080fd5b50610281610e92565b34801561044757600080fd5b50610281611196565b34801561045c57600080fd5b5061021361046b3660046120e7565b60036020526000908152604090205481565b34801561048957600080fd5b506102136104983660046123ba565b6111a6565b3480156104a957600080fd5b506104b26111e2565b6040516001600160a01b03909116815260200161021d565b3480156104d657600080fd5b506102816104e53660046123ba565b611210565b3480156104f657600080fd5b506104b26105053660046120e7565b6001602052600090815260409020546001600160a01b031681565b34801561052c57600080fd5b50600054610213565b34801561054157600080fd5b506102ea604051806040016040528060058152602001640352e302e360dc1b81525081565b34801561057257600080fd5b50610213610581366004612102565b611335565b34801561059257600080fd5b506102136105a13660046123ba565b6113de565b3480156105b257600080fd5b506102816105c13660046123e4565b6113ff565b3480156105d257600080fd5b506102136105e13660046122e1565b600460209081526000928352604080842090915290825290205481565b34801561060a57600080fd5b5061021361271081565b34801561062057600080fd5b506104b273037eb04ad9ddff984f44ce5941d14b8ea378145981565b34801561064857600080fd5b506102816106573660046120e7565b61182e565b6000818154811061066c57600080fd5b600091825260209091206003909102018054600182015460029092015490925083565b61069761186c565b806106e95760405162461bcd60e51b815260206004820152601b60248201527f4d7573742068617665206174206c65617374206f6e652074696572000000000060448201526064015b60405180910390fd5b6106f4600080612089565b60005b818110156107cf576103e883838381811061071457610714612460565b90506060020160400135111561076c5760405162461bcd60e51b815260206004820152601a60248201527f46656520726174652063616e6e6f74206578636565642031302500000000000060448201526064016106e0565b600083838381811061078057610780612460565b8354600181018555600094855260209094206060909102929092019260030290910190506107c582828135815560208201356001820155604082013560028201555050565b50506001016106f7565b506040517f1afade186b94bc7f505bf16bd5d8f3bd8108ec820257180c152233a6cffe1f3190600090a15050565b61080561186c565b61080d61189e565b565b6108176118fe565b610820826119a3565b61082a82826119ab565b5050565b6000610838611a6d565b5060008051602061256283398151915290565b6001600160a01b038083166000908152600460209081526040808320938516835292905220545b92915050565b61088061186c565b6001600160a01b0381166108ce5760405162461bcd60e51b8152602060048201526015602482015274496e76616c696420746f6b656e206164647265737360581b60448201526064016106e0565b6001600160a01b03811660009081526002602052604090205460ff16156109375760405162461bcd60e51b815260206004820152601760248201527f546f6b656e20616c726561647920737570706f7274656400000000000000000060448201526064016106e0565b6001600160a01b038116600081815260026020526040808220805460ff19166001179055517f784c8f4dbf0ffedd6e72c76501c545a70f8b203b30a26ce542bf92ba87c248a49190a250565b61098b61186c565b61080d6000611ab6565b61099d61186c565b6001600160a01b03811660009081526002602052604090205460ff166109fb5760405162461bcd60e51b8152602060048201526013602482015272151bdad95b881b9bdd081cdd5c1c1bdc9d1959606a1b60448201526064016106e0565b6001600160a01b038116600081815260026020526040808220805460ff19169055517f4c910b69fe65a61f7531b9c5042b2329ca7179c77290aa7e2eb3afa3c8511fd39190a250565b610a4c611b27565b610a54611b5f565b6001600160a01b03861660009081526002602052604090205460ff16610abc5760405162461bcd60e51b815260206004820152601960248201527f496e70757420746f6b656e206e6f7420737570706f727465640000000000000060448201526064016106e0565b6001600160a01b03851660009081526002602052604090205460ff16610b245760405162461bcd60e51b815260206004820152601a60248201527f4f757470757420746f6b656e206e6f7420737570706f7274656400000000000060448201526064016106e0565b60008411610b745760405162461bcd60e51b815260206004820152601d60248201527f416d6f756e74206d7573742062652067726561746572207468616e203000000060448201526064016106e0565b856000610b8182876111a6565b90506000610b8f828861248c565b6040516323b872dd60e01b8152336004820152306024820152604481018990529091506001600160a01b038416906323b872dd906064016020604051808303816000875af1158015610be5573d6000803e3d6000fd5b505050506040513d601f19601f82011682018060405250810190610c09919061249f565b610c475760405162461bcd60e51b815260206004820152600f60248201526e151c985b9cd9995c8819985a5b1959608a1b60448201526064016106e0565b60405163a9059cbb60e01b815273037eb04ad9ddff984f44ce5941d14b8ea37814596004820152602481018390526001600160a01b0384169063a9059cbb906044016020604051808303816000875af1158015610ca8573d6000803e3d6000fd5b505050506040513d601f19601f82011682018060405250810190610ccc919061249f565b610d0e5760405162461bcd60e51b8152602060048201526013602482015272119959481d1c985b9cd9995c8819985a5b1959606a1b60448201526064016106e0565b60405163a9059cbb60e01b8152336004820152602481018290526001600160a01b0384169063a9059cbb906044016020604051808303816000875af1158015610d5b573d6000803e3d6000fd5b505050506040513d601f19601f82011682018060405250810190610d7f919061249f565b610dc05760405162461bcd60e51b815260206004820152601260248201527114ddd85c081c995d1d5c9b8819985a5b195960721b60448201526064016106e0565b6001600160a01b03891660009081526003602052604081208054849290610de89084906124c1565b90915550503360009081526004602090815260408083206001600160a01b038d16845290915281208054849290610e209084906124c1565b909155505060408051888152602081018490526001600160a01b03808b1692908c169133917f999041acc4728e44046c8aeeec50de0fcbe4167a00c8bb398151d4efb312aeff910160405180910390a4505050610e8a60016000805160206125a283398151915255565b505050505050565b6000610e9c611ba4565b805490915060ff600160401b820416159067ffffffffffffffff16600081158015610ec45750825b905060008267ffffffffffffffff166001148015610ee15750303b155b905081158015610eef575080155b15610f0d5760405163f92ee8a960e01b815260040160405180910390fd5b845467ffffffffffffffff191660011785558315610f3757845460ff60401b1916600160401b1785555b610f3f611bcd565b610f4833611bdd565b610f50611bee565b610f58611bee565b60026020527fc6068bc5512f97cd99c4a76236724fd02dc7d39b9c30c34dd3d86e385e783ecd8054600160ff1991821681179092557f1e255ae220fd36f51b3808f1b9b909408c5b32b7569b1092879c53534567cbef80548216831790557f327491030415e13c6c980f78ef8860dd246e52933d343c257d6796f16e437f7580548216831790557f0dc3fb5a5fd23f823377c16c18a938f444ebbada9ee531ca69b446ba4acb71d880548216831790557fde9e6fa69ceacb0f04cbaff77370094e807116f3bad736fa2d774d8b2ab07f9080548216831790557fa3ac5f025bd514f8f6ce99517705b7b0a06dd4f0305184fd1c6cfe40fdac279480548216831790557fccefa733e67fe371f16febf99ec6ee071a0dd76f1ead0a27f10a1052ef37fade80548216831790557f8fb53e63f0646879eda3e62d75e185304fcb8c2ed8dfc49f4d8146bc4bb2ee9280548216831790557f547504c514b2390d5646ff79cf690abf7d37f4091d1cae04dbc008f10d1b0ade80548216831790557f76f7269484a519296f5003d478486766361366c67640645cd9d1803719e80a5c805482168317905573269cae7dc59803e5c596c95756faeebb6030e0af6000527fc2bddedf0b356270fa8578ae9e7d2ff330c3f44437bfde4da64a3a9a94775a8880549091169091179055611149611bf6565b831561118f57845460ff60401b19168555604051600181527fc7f505b2f371ae2175ee4913f4499e1f2633a7b5936321eed1cdaeb6115181d29060200160405180910390a15b5050505050565b61119e61186c565b61080d611dc0565b6000806111b38484611e09565b905060006111c082611335565b90506127106111cf82866124d4565b6111d991906124eb565b95945050505050565b7f9016d09d72d40fdae2fd8ceac6b6234c7706214fd39c1cd1e609a0528c199300546001600160a01b031690565b61121861186c565b816001600160a01b03811663a9059cbb6112306111e2565b6040516001600160e01b031960e084901b1681526001600160a01b039091166004820152602481018590526044016020604051808303816000875af115801561127d573d6000803e3d6000fd5b505050506040513d601f19601f820116820180604052508101906112a1919061249f565b6112ed5760405162461bcd60e51b815260206004820152601b60248201527f456d657267656e6379207769746864726177616c206661696c6564000000000060448201526064016106e0565b826001600160a01b03167fc0819c13be868895eb93e40eaceb96de976442fa1d404e5c55f14bb65a8c489a8360405161132891815260200190565b60405180910390a2505050565b6000805b6000548110156113d5576000818154811061135657611356612460565b906000526020600020906003020160000154831015801561139b57506000818154811061138557611385612460565b9060005260206000209060030201600101548311155b156113cd57600081815481106113b3576113b3612460565b906000526020600020906003020160020154915050919050565b600101611339565b50601492915050565b6000806113eb84846111a6565b90506113f7818461248c565b949350505050565b611407611b27565b61140f611b5f565b6001600160a01b03841660009081526002602052604090205460ff1661146d5760405162461bcd60e51b8152602060048201526013602482015272151bdad95b881b9bdd081cdd5c1c1bdc9d1959606a1b60448201526064016106e0565b6001600160a01b0383166114b75760405162461bcd60e51b8152602060048201526011602482015270125b9d985b1a59081c9958da5c1a595b9d607a1b60448201526064016106e0565b600082116115075760405162461bcd60e51b815260206004820152601d60248201527f416d6f756e74206d7573742062652067726561746572207468616e203000000060448201526064016106e0565b83600061151482856111a6565b90506000611522828661248c565b6040516323b872dd60e01b8152336004820152306024820152604481018790529091506001600160a01b038416906323b872dd906064016020604051808303816000875af1158015611578573d6000803e3d6000fd5b505050506040513d601f19601f8201168201806040525081019061159c919061249f565b6115da5760405162461bcd60e51b815260206004820152600f60248201526e151c985b9cd9995c8819985a5b1959608a1b60448201526064016106e0565b60405163a9059cbb60e01b81526001600160a01b0387811660048301526024820183905284169063a9059cbb906044016020604051808303816000875af1158015611629573d6000803e3d6000fd5b505050506040513d601f19601f8201168201806040525081019061164d919061249f565b6116995760405162461bcd60e51b815260206004820152601960248201527f526563697069656e74207472616e73666572206661696c65640000000000000060448201526064016106e0565b60405163a9059cbb60e01b815273037eb04ad9ddff984f44ce5941d14b8ea37814596004820152602481018390526001600160a01b0384169063a9059cbb906044016020604051808303816000875af11580156116fa573d6000803e3d6000fd5b505050506040513d601f19601f8201168201806040525081019061171e919061249f565b6117605760405162461bcd60e51b8152602060048201526013602482015272119959481d1c985b9cd9995c8819985a5b1959606a1b60448201526064016106e0565b6001600160a01b038716600090815260036020526040812080548492906117889084906124c1565b90915550503360009081526004602090815260408083206001600160a01b038b168452909152812080548492906117c09084906124c1565b90915550506040516001600160a01b0388169033907fff7ae9e595f6a1d98a91d89005947348cae8741387fac7b9dc472993f87294569061180690899087908a9061250d565b60405180910390a350505061182860016000805160206125a283398151915255565b50505050565b61183661186c565b6001600160a01b03811661186057604051631e4fbdf760e01b8152600060048201526024016106e0565b61186981611ab6565b50565b336118756111e2565b6001600160a01b03161461080d5760405163118cdaa760e01b81523360048201526024016106e0565b6118a6611e3c565b600080516020612582833981519152805460ff191681557f5db9ee0a495bf2e6ff9c91a7834c1ba4fdd244a5e8aa4e537bd38aeae4b073aa335b6040516001600160a01b03909116815260200160405180910390a150565b306001600160a01b037f000000000000000000000000000000000000000000000000000000000000000016148061198557507f00000000000000000000000000000000000000000000000000000000000000006001600160a01b0316611979600080516020612562833981519152546001600160a01b031690565b6001600160a01b031614155b1561080d5760405163703e46dd60e11b815260040160405180910390fd5b61186961186c565b816001600160a01b03166352d1902d6040518163ffffffff1660e01b8152600401602060405180830381865afa925050508015611a05575060408051601f3d908101601f19168201909252611a029181019061252c565b60015b611a2d57604051634c9c8ce360e01b81526001600160a01b03831660048201526024016106e0565b6000805160206125628339815191528114611a5e57604051632a87526960e21b8152600481018290526024016106e0565b611a688383611e6c565b505050565b306001600160a01b037f0000000000000000000000000000000000000000000000000000000000000000161461080d5760405163703e46dd60e11b815260040160405180910390fd5b7f9016d09d72d40fdae2fd8ceac6b6234c7706214fd39c1cd1e609a0528c19930080546001600160a01b031981166001600160a01b03848116918217845560405192169182907f8be0079c531659141344cd1fd0a4f28419497f9722a3daafe3b4186f6b6457e090600090a3505050565b6000805160206125a2833981519152805460011901611b5957604051633ee5aeb560e01b815260040160405180910390fd5b60029055565b6000805160206125828339815191525460ff161561080d5760405163d93c066560e01b815260040160405180910390fd5b60016000805160206125a283398151915255565b6000807ff0c57e16840df040f15088dc2f81fe391c3923bec73e23a9662efc9c229c6a00610872565b611bd5611ec2565b61080d611ee7565b611be5611ec2565b61186981611eef565b61080d611ec2565b611c01600080612089565b604080516060808201835260008083526305f5e10060208085019182526064858701908152835460018181018655858052965160039182027f290decd9548b62a8d60345a988386fc84ba6bc95484008f6362f93160ef3e5638181019290925594517f290decd9548b62a8d60345a988386fc84ba6bc95484008f6362f93160ef3e5648087019190915592517f290decd9548b62a8d60345a988386fc84ba6bc95484008f6362f93160ef3e5659586015588518088018a526305f5e1018152631dcd6500818601908152604b828c019081528854808c018a55898052925192850280850193909355905182860155519086015588518088018a52631dcd6501815263773594008186019081526032828c019081528854808c018a55898052925192850280850193909355905182860155519086015588518088018a526377359401815264012a05f200818601908152601e828c019081528854808c018a5589805292519285028085019390935590518286015551908601558851968701895264012a05f2018752600019938701938452601498870198895285549788018655948052945195909402928301949094559251918101919091559151910155565b611dc8611b5f565b600080516020612582833981519152805460ff191660011781557f62e78cea01bee320cd4e420270b5ea74000d11b0c9f74754ebdbfc544b05a258336118e0565b60006001600160a01b03831673833589fcd6edb6e08f4c7c32d4f71b54bda0291303611e36575080610872565b50919050565b6000805160206125828339815191525460ff1661080d57604051638dfc202b60e01b815260040160405180910390fd5b611e7582611ef7565b6040516001600160a01b038316907fbc7cd75a20ee27fd9adebab32041f755214dbc6bffa90cc0225b39da2e5c2d3b90600090a2805115611eba57611a688282611f5c565b61082a611fc9565b611eca611fe8565b61080d57604051631afcd79f60e31b815260040160405180910390fd5b611b90611ec2565b611836611ec2565b806001600160a01b03163b600003611f2d57604051634c9c8ce360e01b81526001600160a01b03821660048201526024016106e0565b60008051602061256283398151915280546001600160a01b0319166001600160a01b0392909216919091179055565b6060600080846001600160a01b031684604051611f799190612545565b600060405180830381855af49150503d8060008114611fb4576040519150601f19603f3d011682016040523d82523d6000602084013e611fb9565b606091505b50915091506111d9858383612002565b341561080d5760405163b398979f60e01b815260040160405180910390fd5b6000611ff2611ba4565b54600160401b900460ff16919050565b6060826120175761201282612061565b61205a565b815115801561202e57506001600160a01b0384163b155b1561205757604051639996b31560e01b81526001600160a01b03851660048201526024016106e0565b50805b9392505050565b80511561207057805160208201fd5b60405163d6bda27560e01b815260040160405180910390fd5b508054600082556003029060005260206000209081019061186991905b808211156120c75760008082556001820181905560028201556003016120a6565b5090565b80356001600160a01b03811681146120e257600080fd5b919050565b6000602082840312156120f957600080fd5b61205a826120cb565b60006020828403121561211457600080fd5b5035919050565b6000806020838503121561212e57600080fd5b823567ffffffffffffffff8082111561214657600080fd5b818501915085601f83011261215a57600080fd5b81358181111561216957600080fd5b86602060608302850101111561217e57600080fd5b60209290920196919550909350505050565b634e487b7160e01b600052604160045260246000fd5b600067ffffffffffffffff808411156121c1576121c1612190565b604051601f8501601f19908116603f011681019082821181831017156121e9576121e9612190565b8160405280935085815286868601111561220257600080fd5b858560208301376000602087830101525050509392505050565b6000806040838503121561222f57600080fd5b612238836120cb565b9150602083013567ffffffffffffffff81111561225457600080fd5b8301601f8101851361226557600080fd5b612274858235602084016121a6565b9150509250929050565b60005b83811015612299578181015183820152602001612281565b50506000910152565b600081518084526122ba81602086016020860161227e565b601f01601f19169290920160200192915050565b60208152600061205a60208301846122a2565b600080604083850312156122f457600080fd5b6122fd836120cb565b915061230b602084016120cb565b90509250929050565b60008060008060008060a0878903121561232d57600080fd5b612336876120cb565b9550612344602088016120cb565b94506040870135935060608701359250608087013567ffffffffffffffff8082111561236f57600080fd5b818901915089601f83011261238357600080fd5b81358181111561239257600080fd5b8a60208285010111156123a457600080fd5b6020830194508093505050509295509295509295565b600080604083850312156123cd57600080fd5b6123d6836120cb565b946020939093013593505050565b600080600080608085870312156123fa57600080fd5b612403856120cb565b9350612411602086016120cb565b925060408501359150606085013567ffffffffffffffff81111561243457600080fd5b8501601f8101871361244557600080fd5b612454878235602084016121a6565b91505092959194509250565b634e487b7160e01b600052603260045260246000fd5b634e487b7160e01b600052601160045260246000fd5b8181038181111561087257610872612476565b6000602082840312156124b157600080fd5b8151801515811461205a57600080fd5b8082018082111561087257610872612476565b808202811582820484141761087257610872612476565b60008261250857634e487b7160e01b600052601260045260246000fd5b500490565b8381528260208201526060604082015260006111d960608301846122a2565b60006020828403121561253e57600080fd5b5051919050565b6000825161255781846020870161227e565b919091019291505056fe360894a13ba1a3210667c828492db98dca3e2076cc3735a920a3ca505d382bbccd5ed15c6e187e77e9aee88184c21f4f2182ab5827cb3b7e07fbedcd63f033009b779b17422d0df92223018b32b4d1fa46e071723d6817e2486d003becc55f00a2646970667358221220fb479edab0ef7062d6a906f00aedb3d37fe2263b09f9a245335e331704c0a8e364736f6c63430008160033",
  "linkReferences": {},
  "deployedLinkReferences": {}
}